:020000040000FA
:2B000000FFFF62FF2500FFFFFFFFFFFFFFFFFFFFFFFFFFFFFFFFFFFFFFFFFFFFFFFFFFFFFFFFFFFFFFFFFFFFFFFFFF76
:2B002B00601886611886C11DBC61188661180677188601000000001886611886611886611886611886611886610097EE
:2B005600401004411004A1100A411004411084421004010000000010044110044110044110044110044110044100E4B8
:2B008100000000000000000000000000000000000000000000000000000000000000000000000000000000000080E7ED
:2B00AC00000000000000000000000000000000000000000000000000000000000000000000000000000000000080E7C2
:2B00D700000000000000000000000000000000000000000000000000000000000000000000000000000000000080E797
:2B010200000000000000000000000000000000000000000000000000000000000000000000000000000000000080E76B
:2B012D000A0000000000000000000000000000000000000000000000000000000000000000000000000000000080ED30
:2B015800002080000800000840000800000000000000000000000000000000000000000000000000000000000080A163
:2B018300000080000000800000000000000100000000000000000000000000000000000000000000000000000080FED2
:2B01AE00004800000000000000000000000000000000000000000000000000000000000000000000000000000000E3FB
:2B01D900000000000000000000000000000000400000000000000000000000000000000000000000000000000080A794
:2B020400000000000000000000000000000000000000000000000000000000000000000000000000000000000080E768
:2B022F00008000000000000040000000000000000000000000000000000000000000000000000000000000000080ABB9
:2B025A00000000000000000000000000000000000000000000000000000000000000000000000000000000000080E712
:2B028500000000100001000005000001000400000001000000000000000000000000000000000000000000000080F3BF
:2B02B000800000000000000180400400000000000000000000000000000000000000000000000000000000000080FA64
:2B02DB00000800000000000000000000000000000000000000000000000000000000000000000000000000000000E709
:2B030600000000000000000000000000000000400000000000000000000000000000000000000000000000000080A765
:2B033100000200000000000020000100000200000200000000000000000000000000000000000000000000000080F604
:2B035C00000120000200000210100200000120000100000000000000000000000000000000000000000000000080D5B8
:2B038700000002609821618A20208E2000008001000000000000000000000000000000000000000000000000008098BE
:2B03B200020000209000200020000000000000000000000000000000000000000000000000000000000000000008C660
:2B03DD00000000000000000000208A00000000000000000000000000000000000000000000000000000000000000ED5E
:2B040800000000000020000000000000000000010000000000000000000000000000000000000000000000000080C464
:2B04330000000A400801438A0000043000008002000000000000000000000000000000000000000000000000008083C5
:2B045E00000000000200001000000000000000000000000000000000000000000000000000000000000000000080C41D
:2B048900820000000000000008000000800000800000000000000000000000000000000000000000000000000008EDC9
:2B04B400000008000008000000800008000008000008000000000020000220000220000220000220000220000280E742
:2B04DF00800008800008800008800008800008800008000000000020000220000220000220000220000220000280E78F
:2B050A00000400000100000180000000000000000800000000000000000000000000000000000000000000000080A315
:2B0535006201006001006001160000000000006001000000000000000000000000000000000000000000000000089C5B
:2B056000A20100200100200118000000000000800100000000000000000000000000000000000000000000000000DC16
:2B058B00C40B004001004001BC000000000000C00B000000000000000000000000000000000000000000000000809855
:2B05B600A20100200100200118040000000000800100000000000000000000000000000000000000000000000000D8C0
:2B05E100A28100200100200138000000000000808300000000000000000000000000000000000000000000000000DC73
:2B060C00820100002100002118000000000000800300000000000000000000000000000000000000000000000088D605
:2B063700C00700000100000138080000000000800300000000000000000000000000000000000000000000000000D03C
:2B066200000000000100000100020100000000000001000000000000000000000000000000000000000000000080E403
:2B068D00600900600100600136600100600900600300000000000000000000000000000000000000000000000080969E
:2B06B800820900200100200100300100808100002000000000000000000000000000000000000000000000000088C6AA
:2B06E300C00100400100400134400100C00300400300000000000000000000000000000000000000000000000080941A
:2B070E00802100200100200100200100800100000000000000000000000000000000000000000000000000000080D4E7
:2B073900800100200100200130210100808300004300000000000000000000000000000000000000000000000080F9C1
:2B076400800100008100004138008100800100800100000000000000000000000000000000000000000000000080D01C
:2B078F0082830040030000033800030080430080130000000000000000000000000000000000000000000000000893C8
:2B07BA00000001000100000100000100000400000000000000000000000000000000000000000000000000000080A2EA
:2B07E500600300600100600106620100600100602000000000000000000000000000000000000000000000000080B446
:2B081000008000200100200110200100A00100001100000000000000000000000000000000000000000000000000E632
:2B083B00420300400100400124420100C00B00400200000000000000000000000000000000000000000000000008B699
:2B086600020000200100200100200100A00100004000000000000000000000000000000000000000000000000000E938
:2B089100044300200100200100300100A08100000000000000000000000000000000000000000000000000000000C49D
:2B08BC00820100004100002100012100800100001000000000000000000000000000000000000000000000000080F009
:2B08E700821300000300400100000100C007000000000000000000000000000000000000000000000000000000809332
:2B091200020000000100000100000100000000000000000000000000000000000000000000000000000000000008FCB1
:2B093D00602000600100600176600100602000600500000000000000000000000000000000000000000000000080B45D
:2B0968000001002001002001182001000001008005000000000000000000000000000000000000000000000000809250
:2B09930040020140010040015C400100401000C00100000000000000000000000000000000000000000000000080C185
:2B09BE00020000200100200118200100000000800100000000000000000000000000000000000000000000000008DC2C
:2B09E900020001200100200138300100000001804100000000000000000000000000000000000000000000000080E211
:2B0A1400041000004100000118044100001000800100000000000000000000000000000000000000000000000080F6FD
:2B0A3F00020000400300400119000300000000800301000000000000000000000000000000000000000000000080D610
:2B0A6A00020410000100000100000100000400000000000000000000000000000000000000000000000000000080E5DF
:2B0A9500620316600100600196600100600300602000000000000000000000000000000000000000000000000088FE99
:2B0AC00080011220010020019A200100800100000200000000000000000000000000000000000000000000000080FC7C
:2B0AEB00C0051440010040013C400100C00500C00000000000000000000000000000000000000000000000000080D42F
:2B0B160080011220010020011A200100804100004000000000000000000000000000000000000000000000000000DEC5
:2B0B410082411220010020011A240100800100000000000000000000000000000000000000000000000000000088D456
:2B0B6C00800110040100004118000300800300001000000000000000000000000000000000000000000000000000FFDA
:2B0B970080233040010140031C080100800300000000000000000000000000000000000000000000000000000000A48F
:2B0BC200000010000100000100000100000000000000000000000000000000000000000000000000000000000080E78E
:2B0BED00602016600100600106620100602000602000000000000000000000000000000000000000000000000080E7B5
:2B0C1800024012200100200140200100000000000000000000000000000000000000000000000000000000000008AD05
:2B0C4300C0021440010040012C400100C02200402200000000000000000000000000000000000000000000000000EF8E
:2B0C6E00000012200100200100200100000000004000000000000000000000000000000000000000000000000080E343
:2B0C9900000013200100200100300100000001000000000000000000000000000000000000000000000000000080F732
:2B0CC400021030008100000300010300001000001000000000000000000000000000000000000000000000000008C74C
:2B0CEF00000010000300000100000300000000800000000000000000000000000000000000000000000000000000EF54
:2B0D1A00000010000100000110000100000000000100000000000000000000000000000000000000000000000080E723
:2B0D4500602016600100600116600100602000600100000000000000000000000000000000000000000000000080E76C
:2B0D7000001012200100200112200100000000200100000000000000000000000000000000000000000000000080E63A
:2B0D9B00420214400100400114400100400201400100000000000000000000000000000000000000000000000008FD75
:2B0DC600000012200100200112200100000000200100000000000000000000000000000000000000000000000080E7F3
:2B0DF100000013200100200112200100000001200100000000000000000000000000000000000000000000000080E7C6
:2B0E1C00001010000100000110100100001000000100000000000000000000000000000000000000000000000080F7E0
:2B0E4700820010100101000111000101800000000101000000000000000000000000000000000000000000000008FD41
:2B0E7200020110000100000100000001000110000000000000000000000000000000000000000000000000000080F5B9
:2B0E9D00640116600100600106620300600116600900000000000000000000000000000000000000000000000000A3FF
:2B0EC800220112200100200120000000200112A00900000000000000000000000000000000000000000000000080FE0E
:2B0EF300420114400100400104400B00400114C00300000000000000000000000000000000000000000000000080AD67
:2B0F1E00220112200100200100002000200112A00100000000000000000000000000000000000000000000000088D6DF
:2B0F4900200112200100200100100300200112A08100000000000000000000000000000000000000000000000000F5AC
:2B0F7400008110022100000300810100000310820500000000000000000000000000000000000000000000000080A857
:2B0F9F00000110400100400108801300000110C00300000000000000000000000000000000000000000000000000AE77
:2B0FCA00000001000000000000080000000000000001000000000000000000000000000000000000000000000080EF83
:2B0FF500000020044000001200001000001220010000000000000000000000000000000000000000000000000080E7B1
:2B102000000000000008000000000008000000000008000000000020000220000220000220000220000220000200EFD2
:2B104B00800008800008800008800008800008800008000000000020000220000220000220000220000220000280E717
:2B1076000000C2488200400C01080218000004200000000000000000000000000000000000000000000000000000A68A
:2B10A100000000000000000000000010000000000000000000000000000000000000000000000000000000000080F69E
:2B10CC00000000200000000000408C000000000000A2100000000000000000000000000000000000000000000080D902
:2B10F700000000000000000000000020000000080000000000000000000000000000000000000000000000000080CD59
:2B1122000000C268A200400C0148AE380000042800A2100000000000000000000000000000000000000000000000B2CB
:2B114D00800005000000400008D00000400001800000000000000000000000000000000000000000000000000080F7A2
:2B117800000000000000000000000000000000001000000000000000000000000000000000000000000000000080E6D6
:2B11A300000000000000000000010000000800000000000000000000000000000000000000000000000000000000E632
:2B11CE00000000000000000004020000000000000000000000000000000000000000000000000000000000000080A5CB
:2B11F900100000400000000000080000000000000800000000000000000000000000000000000000000000000000BFAC
:2B122400020000004000000000004000000000800400000000000000000000000000000000000000000000000000A9F0
:2B124F00000000000000000000000000000000000000000000000000000000000000000000000000000000000080E70D
:2B127A00000000000000000000000000000000000000000000000000000000000000000000000000000000000080E7E2
:2B12A500001000000000000000000000800008009000000000000000000000000000000000000000000000000080EF87
:2B12D000100001000000000000010000001000000001000000000000000000000000000000000000000000000080F759
:2B12FB0000240000100000000006000000E000006000000000000000000000000000000000000000000000000080AE20
:2B1326000082000000000000000880004040000080000000000000000000000000000000000000000000000000808191
:2B135100004000000000000000000000000000000400000000000000000000000000000000000000000000000080A706
:2B137C00000000000000000000000000000000000000000000000000000000000000000000000000000000000080E7DF
:2B13A700000000000000000000400000000040000000000000000000000000000000000000000000000000000080E338
:2B13D200000000000000000000000000000000000000000000000000000000000000000000000000000000000080E789
:2B13FD00000000000008000000000000000000000080000000000000000000000000000000000000000000000080EFCE
:2B142800020000000400000000000001000000000000000000000000000000000000000000000000000000000080B161
:2B145300000000000000000000000000000000000000000000000000000000000000000000000000000000000080E707
:2B147E00000000000000000000000000000000000000000000000000000000000000000000000000000000000080E7DC
:2B14A900000000000000000000800000000000000000000000000000000000000000000000000000000000000000EFA9
:2B14D400000040000840000000000000000400000040000000000000000000000000000000000000000000000000E73A
:2B14FF00080008090000000000000000000000000000000000000000000000000000000000000000000000000000EEBB
:2B152A00080000000000000000000000000004000010000000000000000000000000000000000000000000000080BE3C
:2B1555000000000000000000000000000000000000000000000000000000000000000000000000000000000000C0A308
:2B158000000000400000000000000000000000000000000000000000000000000000000000000000000000000080A7D9
:2B15AB000000408000000100000002880000280002080000000000000000000000000000000000000000000000008018
:2B15D600000010000000000000000100000010000100000000000000000000000000000000000000000000000080E761
:2B160100000000806204490040209A000000804080A2000000000000000000000000000000000000000000000080C76C
:2B162C00020000000000400040000000000000000000000000000000000000000000000000000000000000000080E1B0
:2B165700000000000010000000208A00000000000000000000000000000000000000000000000000000000000088F432
:2B168200000000004000000000000000000080000000000000000000000000000000000000000000000000000088EB0A
:2B16AD00000000000204090000001000000000C0C0AA000000000000000000000000000000000000000000000088CB76
:2B16D800000000000000000000000000000000000000010000000000000000000000000000000000000000000008EEF0
:2B170300020008000020010000800020040008800000000000000000000000000000000000000000000000000080E004
:2B172E00800000800000800008000000800000000000000000000020000220000220000220000220000220000200EFCD
:2B175900800008800008800008800008800008800008000000000020000220000220000220000220000220000280E702
:2B178400000000000110000000000010000000000410000000000000000000000000000000000000000000000080A3E2
:2B17AF000200966001160000000000160000B6600116000000000000000000000000000000000000000000000008BEF7
:2B17DA00020018200112000000000012000018A00912000000000000000000000000000000000000000000000080DC56
:2B1805000400BC40011400000000001400003CD00114000000000000000000000000000000000000000000000080AA44
:2B183000020018200112000000000012000058A081120000000000000000000000000000000000000000000000009013
:2B185B00020038280112000000000012000018A00112000000000000000000000000000000000000000000000000F61A
:2B188600020018000310000000000010000038800110020000000000000000000000000000000000000000000088F6B1
:2B18B100000018040110010000000030010038C00730000000000000000000000000000000000000000000000000FE80
:2B18DC00000000080110000000000410000000000010000000000000000000000000000000000000000000000080AB79
:2B190700000036600116000000600116000006020016000000000000000000000000000000000000000000000080A74C
:2B193200020000200112000000A00912000010000012000000000000000000000000000000000000000000000008C5AB
:2B195D00000014420114000000C00114000004010014000000000000000000000000000000000000000000000000AC5A
:2B198800000080200112000000A08112000000000012000000000000000000000000000000000000000000000080D6E6
:2B19B300000010200112000000A00112000000100012000000000000000000000000000000000000000000000000DF12
:2B19DE00000018040310000000800110000000010010020000000000000000000000000000000000000000000080C2C9
:2B1A0900020038000314010000C007340100000000340000000000000000000000000000000000000000000000088B9D
:2B1A3400000010000110000000000010000000000010000000000000000000000000000000000000000000000080F6D0
:2B1A5F00000016600116000000600916000056600916000000000000000000000000000000000000000000000080A358
:2B1A8A00000012200112000000800312000018801112000000000000000000000000000000000000000000000000ECB0
:2B1AB500020014400114000000C0031400009CC00314000000000000000000000000000000000000000000000008E564
:2B1AE000020012200112000000800112000018840112000000000000000000000000000000000000000000000000C989
:2B1B0B00040012200112000000808312000018808312000000000000000000000000000000000000000000000000CB59
:2B1B3600020010024130000000800310000018800110000000000000000000000000000000000000000000000000EBD8
:2B1B6100020030000310000000800110010038848134010000000000000000000000000000000000000000000000A16F
:2B1B8C00020000000110000000000010000000000010000000000000000000000000000000000000000000000008ED06
:2B1BB700000026620116000000602016000006622016000000000000000000000000000000000000000000000080C5EB
:2B1BE200000010300112000000000113000000012112000000000000000000000000000000000000000000000080F5C8
:2B1C0D0000000440011400000040001400002C400014000000000000000000000000000000000000000000000000CDB2
:2B1C3800020000200112000000004012000000000012000000000000000000000000000000000000000000000008E9F7
:2B1C6300000000300112000000000012000000100013000000000000000000000000000000000000000000000080F767
:2B1C8E00000000012110000000001010000000011030000000000000000000000000000000000000000000000080C751
:2B1CB90000000000031404000000001401000000001400000000000000000000000000000000000000000000008080BC
:2B1CE400000000000110000000000410000000000410000000000000000000000000000000000000000000000080E735
:2B1D0F000200766001160000006003160000066203160000000000000000000000000000000000000000000000089820
:2B1D3A00000058200112000000800112000000810112000000000000000000000000000000000000000000000000BB11
:2B1D650000003C400114000000C00514000004C00514000000000000000000000000000000000000000000000000DC30
:2B1D9000000018240112000000800112000000804112000000000000000000000000000000000000000000000000FE75
:2B1DBB00020018200112000000804112000000900112000000000000000000000000000000000000000000000088E0D2
:2B1DE600020018000110020000800130000018800131000000000000000000000000000000000000000000000080F7B3
:2B1E1100040038101330000000804310000000800310000000000000000000000000000000000000000000000000CDE4
:2B1E3C00020040000110000000000000080000000010000000000000000000000000000000000000000000000080B8D8
:2B1E6700020016600116000000602036000006622016000000000000000000000000000000000000000000000080D419
:2B1E920002009A200112000000004000000000000212000000000000000000000000000000000000000000000008C337
:2B1EBD0000003C400114000000C00294000024C20014000000000000000000000000000000000000000000000080DEBB
:2B1EE80000001A280112000000004080000000000012000000000000000000000000000000000000000000000080E345
:2B1F130000001A200112000000000010000000100013000000000000000000000000000000000000000000000000FE25
:2B1F3E00020018010110020000001018000000011010080000000000000000000000000000000000000000000008F6FB
:2B1F690000003C001134000000000018100008000030000000000000000000000000000000000000000000000000CD9F
:2B1F9400000000000110000000000000080010000010000000000000000000000000000000000000000000000080EF7A
:2B1FBF00000026620116000000602036000016602016000000000000000000000000000000000000000000000080F482
:2B1FEA00000000200112000000000000000012000212000000000000000000000000000000000000000000000080C52E
:2B20150002002C410114000000401234100014400214000000000000000000000000000000000000000000000088E4B0
:2B204000000000200112000000004040000012000012000000000000000000000000000000000000000000000080A777
:2B206B00000000300112000000000010000012000013000000000000000000000000000000000000000000000080F65C
:2B209600000000018110000000001018000010001010080000000000000000000000000000000000000000000000FF2E
:2B20C1000200000003100400008000181000308100340000000000000000000000000000000000000000000000008BC3
:2B20EC00020000000010000000000100080180000110000000000000000000000000000000000000000000000088F4A0
:2B211700040026020016000000600136600116600116000000000000000000000000000000000000000000000008F8D6
:2B21420002000000001200000020010020019A200112000000000000000000000000000000000000000000000008E562
:2B216D000200040800140000004001B440013C400114000000000000000000000000000000000000000000000008FC5A
:2B21980002000000001200000020018020011A280112000000000000000000000000000000000000000000000080E58C
:2B21C30000000010001200000020013020011A200112000000000000000000000000000000000000000000000000CC44
:2B21EE00000000010010080000000118002158008110000000000000000000000000000000000000000000000080B159
:2B22190000000800003400000000111810033C000330010000000000000000000000000000000000000000000000CCE6
:2B224400000020000000040000000000000000022000000000000000000000000000000000000000000000000008C958
:2B226F00000000008220000000000021020021000220040000000000000000000000000000000000000000000080E9CF
:2B229A00800000000000800008000000000000000000000000000020000220000220000220000220000220000200EF56
:2B22C500800008800008800008800008800008800008000000000020000220000220000220000220000220000280E78B
:2B22F000000000C1758D1600000000820000320800A20800000000000000000000000000000000000000000000008301
:2B231B00000000000000000000000010000000040000000000000000000000000000000000000000000000000080F211
:2B234600000000200000000000208A400000000000441100000000000000000000000000000000000000000000009C71
:2B237100000000000800000000001004000000000000000000000000000000000000000000000000000000000000A67F
:2B239C00000000611C85100000209AD60000220C00E6190000000000000000000000000000000000000000000000AC9B
:2B23C700000000500004000000000004000080100001000000000000000000000000000000000000000000000000B74B
:2B23F200000000000000000000001000000008000000000000000000000000000000000000000000000000000000EEBA
:2B241D00000000000000000000000000180010000000000000000000000000000000000000000000000000000080EEFE
:2B244800000080100000000000000000000000400000000000000000000000000000000000000000000000000000B7E2
:2B247300080004004000000000000041000001080000000000000000000000000000000000000000000000000080E741
:2B249E00000000004000040000000000000040004600040000000000000000000000000000000000000000000080C500
:2B24C900000000020000000000000000000000000000000000000000000000000000000000000000000000000080E581
:2B24F400000000000000000000000800000000800000000000000000000000000000000000000000000000000080EFC6
:2B251F00020000000110000000001110000000000004000000000000000000000000000000000000000000000080A435
:2B254A00000000070000000000002000040000033000000000000000000000000000000000000000000000000080E6A2
:2B257500080000040000000000004800000000406000000000000000000000000000000000000000000000000000A99E
:2B25A000000008000080000000400000000000008000000000000000000000000000000000000000000000000080A7A1
:2B25CB00000020000000000000000000000000000000000000000000000000000000000000000000000000000080C580
:2B25F600000000000000000000000000000000000000000000000000000000000000000000000000000000000080E753
:2B262100000000000000000000000000000000000000000000000000000000000000000000000000000000000080E727
:2B264C00000000000000000000000000000000000000000000000000000000000000000000000000000000000080E7FC
:2B267700000000000000000000000000000000000000000000000000000000000000000000000000000000000080E7D1
:2B26A200000000000000000000000000000000000000000000000000000000000000000000000000000000000080E7A6
:2B26CD00000000000000000000000000000000000000000000000000000000000000000000000000000000000080E77B
:2B26F800000000000000000000000000000000000000000000000000000000000000000000000000000000000080E750
:2B272300000000000000000000000000000000000000000000000000000000000000000000000000000000000080E724
:2B274E00000000000000000000000000000000000000000000000000000000000000000000000000000000000080E7F9
:2B277900000000000000000000000000000000000000000000000000000000000000000000000000000000000080E7CE
:2B27A400000000000000000000000000000000000000000000000000000000000000000000000000000000000080E7A3
:2B27CF00000000000000000000000000000000000000000000000000000000000000000000000000000000000080E778
:2B27FA00000000000000000000000000000000000000000000000000000000000000000000000000000000000080E74D
:2B282500000000000000000000000000000000000020000000000000000000000000000000000000000000000080C523
:2B285000000000000000000000000000000000000010000000000000000000000000000000000000000000000080F6D7
:2B287B00000000000000000000802000000000000000000000000000000000000000000000000000000000000000EDA5
:2B28A600020000000000000000000000000000000000000000000000000000000000000000000000000000000008ED10
:2B28D100000000000000000000004100000000000000000000000000000000000000000000000000000000000080F229
:2B28FC00000000000000000000000000000000000000000000000000000000000000000000000000000000000080E74A
:2B292700000000000000000000000000000000000000000000000000000000000000000000000000000000000080E71E
:2B295200000000000000000000000000000000000000000000000000000000000000000000000000000000000080E7F3
:2B297D00020000000000000000000000000000000000000000000000000000000000000000000000000000000008ED38
:2B29A800800008800008800008800008800008800008000000000020000220000220000220000220000220000280E7A1
:2B29D300800008800008800008800008800008800008000000000020000220000220000220000220000220000280E776
:2B29FE00000000000000000000000001000000000000000000000000000000000000000000000000000000000080F736
:2B2A2900020000000000000000600200000000000000000000000000000000000000000000000000000000000080A7F7
:2B2A5400000000000000000000000000000000000000000000000000000000000000000000000000000000000008EF60
:2B2A7F00000000000000000000402000000000000000000000000000000000000000000000000000000000000008AD17
:2B2AAA00000000000000000000000000000000000000000000000000000000000000000000000000000000000008EF0A
:2B2AD500000000000000000000000301000000000000000000000000000000000000000000000000000000000008CCFE
:2B2B0000020000000000000000000000000000000000000000000000000000000000000000000000000000000080E543
:2B2B2B00000000000000000000001000000000000000000000000000000000000000000000000000000000000080E609
:2B2B5600000000000000000000000001000000000000000000000000000000000000000000000000000000000080F7DC
:2B2B8100000000000000000000600200000000000000000000000000000000000000000000000000000000000080A5A2
:2B2BAC00020000000000000000000000000000000000000000000000000000000000000000000000000000000008ED07
:2B2BD700000000000000000000402000000000000000000000000000000000000000000000000000000000000080A54E
:2B2C0200000000000000000000000100000000000000000000000000000000000000000000000000000000000080F630
:2B2C2D00000000000000000000000201000000000000000000000000000000000000000000000000000000000080D524
:2B2C5800000000000000000000000000000000000000000000000000000000000000000000000000000000000080E7EA
:2B2C8300020000000000000000001000000000000000000000000000000000000000000000000000000000000008EC20
:2B2CAE00000000000000000000000001000000000000000000000000000000000000000000000000000000000080F783
:2B2CD900000000000000000000600200000000000000000000000000000000000000000000000000000000000080A549
:2B2D0400000000000000000000000000000000000000000000000000000000000000000000000000000000000080E73D
:2B2D2F00020000000000000000402100000000000000000000000000000000000000000000000000000000000080B6E0
:2B2D5A00000000000000000000000000000000000000000000000000000000000000000000000000000000000008EF57
:2B2D8500000000000000000000000201000000000000000000000000000000000000000000000000000000000008DD3B
:2B2DB000000000000000000000000000000000000000000000000000000000000000000000000000000000000008EF01
:2B2DDB00000000000000000000001000000000000000000000000000000000000000000000000000000000000008EEC7
:2B2E0600020000000000000000000001000000000000000000000000000000000000000000000000000000000080F529
:2B2E3100000000000000000000600200000000000000000000000000000000000000000000000000000000000080A5EF
:2B2E5C00000000000000000000000000000000000000000000000000000000000000000000000000000000000080E7E4
:2B2E8700000000000000000000402000000000000000000000000000000000000000000000000000000000000080A59B
:2B2EB200020000000000000000000000000000000000000000000000000000000000000000000000000000000008EDFE
:2B2EDD00000000000000000000000201000000000000000000000000000000000000000000000000000000000080D572
:2B2F0800000000000000000000000100000000000000000000000000000000000000000000000000000000000080F627
:2B2F3300000000000000000000001000000000000000000000000000000000000000000000000000000000000080E6FD
:2B2F5E00000000000000000000000001000000000000000000000000000000000000000000000000000000000080F7D0
:2B2F8900020000000000000000600200000000000006020000000000000000000000000000000000000000000008CDDC
:2B2FB400000000000000000000000100000000000000010000000000000000000000000000000000000000000080F779
:2B2FDF0000000000000000000040200000000000001C000000000000000000000000000000000000000000000000FC4F
:2B300A00000000000000000000000000000000000000000000000000000000000000000000000000000000000080E734
:2B303500000000000000000000000201000000000000100000000000000000000000000000000000000000000080C518
:2B306000020000000000000000000000000000000000000000000000000000000000000000000000000000000008ED4E
:2B308B00020000000000000000001000000000000000000000000000000000000000000000000000000000000008EC14
:2B30B600020000000000000000000101000000000000000000000000000000000000000000000000000000000008ECF7
:2B30E100020000000000000000600200000000000006020000000000000000000000000000000000000000000008CD83
:2B310C00000000000000000000000000000000000000010000000000000000000000000000000000000000000080E631
:2B313700000000000000000000402000000000000004000000000000000000000000000000000000000000000080E5A4
:2B316200000000000000000000000000000000000018000000000000000000000000000000000000000000000000FE2C
:2B318D00000000000000000000000201000000000000100000000000000000000000000000000000000000000080C5BF
:2B31B800020000000000000000000000000000000000000000000000000000000000000000000000000000000008EDF5
:2B31E300000000000000000000001000000000000000000000000000000000000000000000000000000000000080E64B
:2B320E00000000000000000000000001000000000000000000000000000000000000000000000000000000000080F71D
:2B323900000000000000000000600200000000000006020000000000000000000000000000000000000000000080C7B9
:2B326400000000000000000000000000000000000000010000000000000000000000000000000000000000000080E6D8
:2B328F00020000000000000000402000000000000004000000000000000000000000000000000000000000000008EFB7
:2B32BA00000000000000000000000000000000000000000000000000000000000000000000000000000000000080E782
:2B32E500000000000000000000000201000000000000100000000000000000000000000000000000000000000080C566
:2B331000000000000000000000000000000000000000000000000000000000000000000000000000000000000080E72B
:2B333B00020000000000000000001100000000000018000000000000000000000000000000000000000000000088E4D0
:2B336600000000000000000000000001000000000018000000000000000000000000000000000000000000000000EE35
:2B339100000000000000000000600300000000000006020000000000000000000000000000000000000000000080D650
:2B33BC00000000000000000000000000000000000000010000000000000000000000000000000000000000000080E67F
:2B33E700000000000000000000402000000000000004000000000000000000000000000000000000000000000080E5F2
:2B341200020000000000000000000000000000000000000000000000000000000000000000000000000000000008ED98
:2B343D00000000000000000000000201000000000000100000000000000000000000000000000000000000000080C50C
:2B346800000000000000000000000000000000000000000000000000000000000000000000000000000000000080E7D2
:2B349300000000000000000000001000000000000000000000000000000000000000000000000000000000000028CC0A
:2B34BE000800000000000000000000000000000000000000000000000000000000000000000000000000000000A0CD6E
:2B34E900000000000000000000000000000000000000000000000000000000000000000000000000000000000080E751
:2B351400800008800008800008800008800008800008000000000020000220000220000220000220000220000280E729
:2B353F00800008800008800008800008800008800008000000000020000220000220000220000220000220000280E7FE
:2B356A00000000000000000000000000000000000000000000000000000000000000000000000000000000000080E7CF
:2B359500000000000000000000000000000000000000000000000000000000000000000000000000000000000080E7A4
:2B35C000000000000000000000004100000000000010040000000000000000000000000000000000000000000080E724
:2B35EB00000000000000000000000000000000000000000000000000000000000000000000000000000000000080E74E
:2B361600000000000000000000802000000000000008020000000000000000000000000000000000000000000080E778
:2B364100000000000000000000000300000000000000100000000000000000000000000000000000000000000080C407
:2B366C00000000000000000000000000000000000000000000000000000000000000000000000000000000000080E7CC
:2B369700000000000000000000008000000000000000000000000000000000000000000000000000000000000080EF19
:2B36C200000000000000000000008000000000000000000000000000000000000000000000000000000000000080EFEE
:2B36ED00000000000000000000000000000000000000000000000000000000000000000000000000000000000080E74B
:2B371800000000000000000000000000000000000000000000000000000000000000000000000000000000000080E71F
:2B374300000000000000000000000000000000000000000000000000000000000000000000000000000000000080E7F4
:2B376E00000000000000000000000000000000000000000000000000000000000000000000000000000000000080E7C9
:2B379900000000000000000000000000000000000000000000000000000000000000000000000000000000000080E79E
:2B37C400000000000000000000000000000000000000000000000000000000000000000000000000000000000080E773
:2B37EF00000000000000000000000000000000000000000000000000000000000000000000000000000000000080E748
:2B381A00000000000000000000000000000000000000000000000000000000000000000000000000000000000080E71C
:2B384500000000000000000000000000000000000000000000000000000000000000000000000000000000000080E7F1
:2B387000000000000000000000000000000000000000000000000000000000000000000000000000000000000080E7C6
:2B389B00000000000000000000000000000000000000000000000000000000000000000000000000000000000080E79B
:2B38C600000000000000000000000000000000000000000000000000000000000000000000000000000000000080E770
:2B38F100000000000000000000000000000000000000000000000000000000000000000000000000000000000080E745
:2B391C00000000000000000000000000000000000000000000000000000000000000000000000000000000000080E719
:2B394700401004A110044110044110044110044110040100000000100441100441100441100441100441100441008F6A
:2B397200601886C11D866118866118866118866118860100000000188661188661188661188661188661188661009A37
:02399D00FFFF2A
:00000001FF
