:020000040000FA
:2B000000FFFF62FF2500FFFFFFFFFFFFFFFFFFFFFFFFFFFFFFFFFFFFFFFFFFFFFFFFFFFFFFFFFFFFFFFFFFFFFFFFFF76
:2B002B00601886611896611886611886611886611886010000000018866118866118866118866118866118866180F630
:2B00560040100441100E411004411004411004411004010000000010044110044110044110044110044110044100CFAA
:2B008100000000000000000000000000000000000000000000000000000000000000000000000000000000000080E7ED
:2B00AC00000000000000000000000000000000000000000000000000000000000000000000000000000000000080E7C2
:2B00D700000000000008000000000000000000000000000000000000000000000000000000000000000000000000EF07
:2B010200000000000000020000000000000000000000000000000000000000000000000000000000000000000080E56B
:2B012D00000000000000000000000000000000000000000000000000000000000000000000000000000000000080E740
:2B015800000000000000000000000000000000000000000000000000000000000000000000000000000000000080E715
:2B018300000000000000000000000000000000000000000000000000000000000000000000000000000000000080E7EA
:2B01AE00000000000000000000000000000000000000000000000000000000000000000000000000000000000080E7BF
:2B01D900000000000000000000000000000000000000000000000000000000000000000000000000000000000080E794
:2B020400000000000000000000000000000000000000000000000000000000000000000000000000000000000080E768
:2B022F00000000000000000000000000000000000000000000000000000000000000000000000000000000000080E73D
:2B025A00000000000000000000000000000000000000000000000000000000000000000000000000000000000080E712
:2B028500000000000000000000000000000000000000000000000000000000000000000000000000000000000080E7E7
:2B02B000000000000000000000000000000000000000000000000000000000000000000000000000000000000080E7BC
:2B02DB00000000000000000000000000000000000000000000000000000000000000000000000000000000000080E791
:2B030600000000000000000000000000000000000000000000000000000000000000000000000000000000000080E765
:2B033100000000000000000000000000000000000000000000000000000000000000000000000000000000000080E73A
:2B035C00000000000000000000000000000000000000000000000000000000000000000000000000000000000080E70F
:2B038700000000000000000000000000000000000000000000000000000000000000000000000000000000000080E7E4
:2B03B200020000000000000000000000000000000000000000000000000000000000000000000000000000000008ED29
:2B03DD00000000000000000000000000000000000000000000000000000000000000000000000000000000000080E78E
:2B040800000000000000000000000000000000000000000000000000000000000000000000000000000000000080E762
:2B043300000000000000000000000000000000000000000000000000000000000000000000000000000000000080E737
:2B045E00000000000000000000000000000000000000000000000000000000000000000000000000000000000080E70C
:2B048900020000000000000000000000000000000000000000000000000000000000000000000000000000000008ED51
:2B04B400800008800008800008800008800008800008000000000020000220000220000220000220000220000280E7BA
:2B04DF00800008800008800008800008800008800008000000000020000220000220000220000220000220000280E78F
:2B050A00000000000000000000000000000000000000000000000000000000000000000000000000000000000080E75F
:2B053500020000000000000000000000000000000000000000000000000000000000000000000000000000000008EDA4
:2B056000000000000000000000000000000000000000000000000000000000000000000000000000000000000080E709
:2B058B00000000000000000000000000000000000000000000000000000000000000000000000000000000000080E7DE
:2B05B600000000000000000000000000000000000000000000000000000000000000000000000000000000000080E7B3
:2B05E100000000000000000000000000000000000000000000000000000000000000000000000000000000000080E788
:2B060C00020000000000000000000000000000000000000000000000000000000000000000000000000000000008EDCC
:2B063700000000000000000000000000000000000000000000000000000000000000000000000000000000000080E731
:2B066200000000000000000000000000000000000000000000000000000000000000000000000000000000000080E706
:2B068D00000000000000000000000000000000000000000000000000000000000000000000000000000000000080E7DB
:2B06B800020000000000000000000000000000000000000000000000000000000000000000000000000000000008ED20
:2B06E300000000000000000000000000000000000000000000000000000000000000000000000000000000000080E785
:2B070E00000000000000000000000000000000000000000000000000000000000000000000000000000000000080E759
:2B073900000000000000000000000000000000000000000000000000000000000000000000000000000000000080E72E
:2B076400000000000000000000000000000000000000000000000000000000000000000000000000000000000080E703
:2B078F00020000000000000000000000000000000000000000000000000000000000000000000000000000000008ED48
:2B07BA00000000000000000000000000000000000000000000000000000000000000000000000000000000000080E7AD
:2B07E500000000000000000000000000000000000000000000000000000000000000000000000000000000000080E782
:2B081000000000000000000000000000000000000000000000000000000000000000000000000000000000000080E756
:2B083B00020000000000000000000000000000000000000000000000000000000000000000000000000000000008ED9B
:2B086600000000000000000000000000000000000000000000000000000000000000000000000000000000000080E700
:2B089100000000000000000000000000000000000000000000000000000000000000000000000000000000000080E7D5
:2B08BC00000000000000000000000000000000000000000000000000000000000000000000000000000000000080E7AA
:2B08E700000000000000000000000000000000000000000000000000000000000000000000000000000000000080E77F
:2B091200020000000000000000000000000000000000000000000000000000000000000000000000000000000008EDC3
:2B093D00000000000000000000000000000000000000000000000000000000000000000000000000000000000080E728
:2B096800000000000000000000000000000000000000000000000000000000000000000000000000000000000080E7FD
:2B099300000000000000000000000000000000000000000000000000000000000000000000000000000000000080E7D2
:2B09BE00020000000000000000000000000000000000000000000000000000000000000000000000000000000008ED17
:2B09E900000000000000000000000000000000000000000000000000000000000000000000000000000000000080E77C
:2B0A1400000000000000000000000000000000000000000000000000000000000000000000000000000000000080E750
:2B0A3F00000000000000000000000000000000000000000000000000000000000000000000000000000000000080E725
:2B0A6A00000000000000000000000000000000000000000000000000000000000000000000000000000000000080E7FA
:2B0A9500020000000000000000000000000000000000000000000000000000000000000000000000000000000008ED3F
:2B0AC000000000000000000000000000000000000000000000000000000000000000000000000000000000000080E7A4
:2B0AEB00000000000000000000000000000000000000000000000000000000000000000000000000000000000080E779
:2B0B1600000000000000000000000000000000000000000000000000000000000000000000000000000000000080E74D
:2B0B4100020000000000000000000000000000000000000000000000000000000000000000000000000000000008ED92
:2B0B6C00000000000000000000000000000000000000000000000000000000000000000000000000000000000080E7F7
:2B0B9700000000000000000000000000000000000000000000000000000000000000000000000000000000000080E7CC
:2B0BC200000000000000000000000000000000000000000000000000000000000000000000000000000000000080E7A1
:2B0BED00000000000000000000000000000000000000000000000000000000000000000000000000000000000080E776
:2B0C1800020000000000000000000000000000000000000000000000000000000000000000000000000000000008EDBA
:2B0C4300000000000000000000000000000000000000000000000000000000000000000000000000000000000080E71F
:2B0C6E00000000000000000000000000000000000000000000000000000000000000000000000000000000000080E7F4
:2B0C9900000000000000000000000000000000000000000000000000000000000000000000000000000000000080E7C9
:2B0CC400020000000000000000000000000000000000000000000000000000000000000000000000000000000008ED0E
:2B0CEF00000000000000000000000000000000000000000000000000000000000000000000000000000000000080E773
:2B0D1A00000000000000000000000000000000000000000000000000000000000000000000000000000000000080E747
:2B0D4500000000000000000000000000000000000000000000000000000000000000000000000000000000000080E71C
:2B0D7000000000000000000000000000000000000000000000000000000000000000000000000000000000000080E7F1
:2B0D9B00020000000000000000000000000000000000000000000000000000000000000000000000000000000008ED36
:2B0DC600000000000000000000000000000000000000000000000000000000000000000000000000000000000080E79B
:2B0DF100000000000000000000000000000000000000000000000000000000000000000000000000000000000080E770
:2B0E1C00000000000000000000000000000000000000000000000000000000000000000000000000000000000080E744
:2B0E4700020000000000000000000000000000000000000000000000000000000000000000000000000000000008ED89
:2B0E7200000000000000000000000000000000000000000000000000000000000000000000000000000000000080E7EE
:2B0E9D00000000000000000000000000000000000000000000000000000000000000000000000000000000000080E7C3
:2B0EC800000000000000000000000000000000000000000000000000000000000000000000000000000000000080E798
:2B0EF300000000000000000000000000000000000000000000000000000000000000000000000000000000000080E76D
:2B0F1E00020000000000000000000000000000000000000000000000000000000000000000000000000000000008EDB1
:2B0F4900000000000000000000000000000000000000000000000000000000000000000000000000000000000080E716
:2B0F7400000000000000000000000000000000000000000000000000000000000000000000000000000000000080E7EB
:2B0F9F00000000000000000000000000000000000000000000000000000000000000000000000000000000000080E7C0
:2B0FCA00000000000000000000000000000000000000000000000000000000000000000000000000000000000080E795
:2B0FF500000000000000000000000000000000000000000000000000000000000000000000000000000000000080E76A
:2B102000800008800008800008800008800008800008000000000020000220000220000220000220000220000280E742
:2B104B00800008800008800008800008800008800008000000000020000220000220000220000220000220000280E717
:2B107600000000000000000000000000000000000000000000000000000000000000000000000000000000000080E7E8
:2B10A100000000000000000000000000000000000000000000000000000000000000000000000000000000000080E7BD
:2B10CC00000000000000000000000000000000000000000000000000000000000000000000000000000000000080E792
:2B10F700000000000000000000000000000000000000000000000000000000000000000000000000000000000080E767
:2B112200000000000000000000000000000000000000000000000000000000000000000000000000000000000080E73B
:2B114D00000000000000000000000000000000000000000000000000000000000000000000000000000000000080E710
:2B117800000000000000000000000000000000000000000000000000000000000000000000000000000000000080E7E5
:2B11A300000000000000000000000000000000000000000000000000000000000000000000000000000000000080E7BA
:2B11CE00000000000000000000000000000000000000000000000000000000000000000000000000000000000080E78F
:2B11F900000000000000000000000000000000000000000000000000000000000000000000000000000000000080E764
:2B122400000000000000000000000000000000000000000000000000000000000000000000000000000000000080E738
:2B124F00000000000000000000000000000000000000000000000000000000000000000000000000000000000080E70D
:2B127A00000000000000000000000000000000000000000000000000000000000000000000000000000000000080E7E2
:2B12A500000000000000000000000000000000000000000000000000000000000000000000000000000000000080E7B7
:2B12D000000000000000000000000000000000000000000000000000000000000000000000000000000000000080E78C
:2B12FB00000000000000000000000000000000000000000000000000000000000000000000000000000000000080E761
:2B132600000000000000000000000000000000000000000000000000000000000000000000000000000000000080E735
:2B135100000000000000000000000000000000000000000000000000000000000000000000000000000000000080E70A
:2B137C00000000000000000000000000000000000000000000000000000000000000000000000000000000000080E7DF
:2B13A700080000000010000000000000000000800000010000000020000000000000000200000000000020000000D56B
:2B13D200000000000000000000000000000000000000000000000000000020000000000000500000000601000080E316
:2B13FD000000000000480100008008000000080400A00400000000000000000000000000000000000000000080008044
:2B14280000000000002001000000088000002001000401000000000000000000000000000020000000000000008086A4
:2B145300000000000000000000000201000000000000000000000000000000000000000000042000002000002080D3B4
:2B147E00000000000000000000000000000000000100000000000000000000000000000020011000001000001080D49D
:2B14A900000004000000000000000000000000000000000000000010000800000080000000000000000000000080B646
:2B14D400000000000000000400000100000404000000000000000000000000000000000000000000000000000080B6AA
:2B14FF000000000000000200080001001000000200100000000000000000000000000000000004000000002008809B4E
:2B152A00000000000008000000008200000000000000000000000000000000000000008000000000000002004000E961
:2B155500000000000020000000000000000000000000000000000000000400000040000010000100008001000081CD27
:2B158000000000000000000000004000000000000000000000000000000000000000000000080400000000002888A59F
:2B15AB00000020000200000000000000000000000240000000000000000000000000000800004000000680004180F62C
:2B15D600000000000000000000000000000000000408000000000000010000000400001000000040000000010400EE96
:2B1601000004044904026810070086E0710280400A04000000000088C23004000008233004000000000000445000864A
:2B162C00020000000000000000000000000000000000000000000000000000000000000000000000000000000080E52C
:2B165700000000000000000000000000000000000000000000000000000000000000000000000000000000000008EF71
:2B168200000000000000000000000000000000000000000000000000000000000000000000000000000000000008EF46
:2B16AD0000050449040AEC100700C7E0710280400A0C000000000088C2300400006823340400000000000044D408E876
:2B16D8000000200040080004008000000000080040080000000000000020000000000000200002000002000002088BD2
:2B1703000200000002000002000000000006000000000000000000801008000000000000000000000000000000809304
:2B172E00800000000000800008000008800000000000000000000000000020000220000200000020000020000000EF8D
:2B175900800008800008800008800008800008800008000000000020000220000220000220000220000220000280E702
:2B178400000010000180000110000800000000000180000000000040000004000000400400022000002040002000B233
:2B17AF00020016600116600116600106100096600116000000000058800900000098800558800500800558800508B18F
:2B17DA000200122001180001108001000400982001180000000000480000000000008004600006000006480006809C8E
:2B1805000400144001BC400114C00B3C00001C4001BC0000000000500081000000100805F0022F00002F50002F80BE33
:2B18300002001220011800011080814000001830011800000000004800000000002080046000060400064C000600E6F9
:2B185B000200122001380801108003200000382001180400000000480042000000008404E0100E00000E48008680AEAA
:2B1886000200100001180009108001000000180021380000000000400408000000000004600006000006400006089C5B
:2B18B1000000104221380101B08013000000380103380000000000C0000800000080018460100E01000EC1040E81FEFC
:2B18DC00000010000100000110000000000040000100000000000040000400000000400400000000000040000081E253
:2B190700000016600106620116600007100016600106020000000058800500000098800598880902804158800180D2B8
:2B19320002001220011000011000010004009A200110100000000048800400000000800440000400000448008480E090
:2B195D0000001440011441011440212400003C400134000000000050000500000010080550208500000552000588C659
:2B19880000001220010008011000004000001A200100080000000048800400000000800480008000000048000008AB1A
:2B19B30000001220011800011080232000007A2001180000000000488004000000408404E000060000064C00068CDAFF
:2B19DE000000100081100205300001180000180081100000000000400004000000000084402044000004420804099FDE
:2B1A090002001010031800011080430000003C1003380400000000D0040504000080010CE0000600000EC0000E00D317
:2B1A34000000100001000101100040188002000101001000000000400000040000400004000000000000400008009117
:2B1A5F00000016600126600116600006700226600106000000000058800900000058800598C04100808158800100F1C1
:2B1A8A00000012200100000110000001040110280100000000000048000000000040800400200000000048000000E258
:2B1AB500000014400124420114400224400634400124080000000050008100000050000510000101004950000189FC92
:2B1AE0000200122001000401100040400020002801000400000000480000000000408004800008000000480000009652
:2B1B0B00020012200108000110800220800218200108000000000048004000000040800420000200000A4A000A82E3CB
:2B1B3600020010001100100150000001001010021100000000000040080C00000040014400000004000044040000EFB8
:2B1B61000200144403000009100000000003184003200100000000C0000800000040000C800400000000C0004880B98B
:2B1B8C0000001000014000011000001000010000014000000000004000040000006000040000000000004000000898F2
:2B1BB700000016600136600116600516600106620136000000000058800500000068820558811500801D58801D00AD6B
:2B1BE200000012200158000110800510000100200158000000000048800400000068800460011600001648000680E436
:2B1C0D0000001440011C400114C0011440012448011C000000000050000500000070000570000700000750001700F3A5
:2B1C3800020012200118020110802110000100240118010000000048800400000008800460040600004648000682E079
:2B1C63000000122001380001108001100001082001380000000000488004000000088004E0004E00000648000E08C33A
:2B1C8E00000010008118000590800110000500100118000000000040084400000000000460088600008640208608D369
:2B1CB9000000145003180803308011500001004013180100000000D0000400000000004CE0000E00000EC0000E08EF17
:2B1CE400000010000100000110000200000140000100080000000040000004000040000400400002000040000008A1B4
:2B1D0F0002001660010664011660021E700136600126000000000058800900000058800598800900801158802500E5AF
:2B1D3A000000122001000001100000010401182001000000000000480000000000408004002000000000488026008E53
:2B1D650000001440012442011440022440015C400124080000000050008100000050000510000101004950000F009B98
:2B1D9000000012200100040110004040000118200100040000000048000000000040800480000800000048800E80F840
:2B1DBB0002001220010000011000022000011821010000000000004800400000004080040000000000084A800E88970F
:2B1DE600020010080308100110800001000118000308000000000040000A00000040000422000204000244000600BA2B
:2B1E11000400340001000007500000000005180801200100000000C0040800000040020C80040000000040400F84A07E
:2B1E3C00020010000100800110001010000100000100000000000040000004000000400400400000000440001000BCDD
:2B1E6700020016600196A005166000166001266401960000000000588009000000988005188001028005588009008708
:2B1E920002001220019AA0011000001100010020019A000000000048000000000000800400200000800448000088C4D4
:2B1EBD0000001440013CC0011440021440012448013C000000000050008100000010080510000101000550000101A756
:2B1EE80000001220011A20001000401000010024011A000000000048000400000000800480000800800448000080A37B
:2B1F130000001220017A20001000021000010020017A000000000048004000000000840400000000800448000802E54D
:2B1F3E00020010081118000050000131000108101118000000000040040800000000000440000404004440000208F853
:2B1F690000003000033C50003000003000070000033C1000000000500008000000C0010484040000000C40084888F718
:2B1F9400000010000100840520000110800520000100020000000040000440000000400400000000000040000490A172
:2B1FBF00000016600126A00306600116A00326600106000000000058800558000098800558822500802558800588D8D7
:2B1FEA00000012200100A00118200110A001002001000000000000488004480000008004688226008026488004088B40
:2B201500020014400124C20124410114C001244801240800000000500005500000100805F0000F00000F50000588D110
:2B20400000001220010024000020011020000024010004000000004880044800000080046880060080864880040094B8
:2B206B000000122001002000203001102000002001000000000000488004480000008404E8811E00800648800400AE32
:2B209600000010000310100000002110000010100110000000000040100440040000000C601006000006C0004480A145
:2B20C1000200144201000000180003904000000021200100000000C00004C40000A0010470000F04000F44000400B8AF
:2B20EC000201100001100001200000008001100001100000000000400004000004400004400004400000400000889278
:2B211700640116600116600106600906B0071660011600000000005880050080055880055880055880015980018AB880
:2B214200220112200112000180A00900A401122001120000000000488004008004408004488004480000480000088DF1
:2B216D0042011440011440010CC00324C00114400114000000000050000500000550000550000550004950000109A4A2
:2B219800220112200112000100A005402000122001120000000000488004008004408004488004480000480000009861
:2B21C300200112200112000120A1032020001220011200000000004880040080044080044880044800084A000802B904
:2B21EE00000110000110080100800100000010000110000000000040104400004440024440000440040444040400E4DF
:2B221900020111042130000530D003190000100413300200000000D00005000004400004404004440000400048D0D6A4
:2B224400004000048020002000000200000220001020000000000080001000100000000002040001100002000042BF5D
:2B226F00000000000000000200000000000200000000000000000000000000000824000000000000000080400080C50F
:2B229A00000000000000A00008000008A00000000000000000000000000000000008000000000000000000000000EFD2
:2B22C500800008800008800008800008800008800008000000000020000220000220000220000220000220000280E78B
:2B22F00040F044208A000008002345071800804282800C0000000008A3483400C008D330C7008048000000250C80C153
:2B231B00000000000000000000000000000000000000000000000000000000000000000000000000000000000080E730
:2B23460000000000000020000000000000000000000000000000000000000000000000000000004000000000008193F8
:2B237100000000000000020008000000000000000000000000000000000000000000000000008000000000000000E5D2
:2B239C00409044208A00200800210407180080408280080000000008A34814004008C330860000080000002508809015
:2B23C700000000410000000000000000000010410000000000000000000000000000000100020000000810000000F44A
:2B23F2000000008000000000000004044000008000000000000000200001020000002002000000000000200000809003
:2B241D00000001000000080000008000000000080000000000000000000004000000000004000206000002400082FD32
:2B244800000000044000040000000000000000004000000000000000020000000000000001040000000000100180F059
:2B2473000A00000000000000000000000000A0000000080000000000000000000000000000210801000000000080F6EC
:2B249E00000000000000000000400000000008000000140000000000000000000000000000000000000000000011BAEC
:2B24C900000000000000000000000000000000000000000000000000000000000000000000000000000000000084A7BD
:2B24F4000000000020000000000000000000000C0000000000000000000000000000000000000800008000008000E9A0
:2B251F00000000100000000000000000000000000008000000000000000000000000000020408000000000000200B7E0
:2B254A000A00000000401000000000018000001000200000000000400004000000000004000000040000440000009338
:2B257500000000000000000004080400000000000000000000000000000000000002000000080000004000000080C79A
:2B25A0000000000000800200000010000000000200000200000000000000000400000000400040030000000000009063
:2B25CB00000000000004040000400000000004000004000000000000020000000000000000000000000004000080A16E
:2B25F600001000010800000000000000000000001000080000000000000000000000000010000000040800000080FBF2
:2B262100000000000000000000000000000000000000000000000000000000000000000000000000000000000080E727
:2B264C00000000000000000000000000000000000000000000000000000000000000000000000000000000000080E7FC
:2B267700000000000000000000000000000000000000000000000000000000000000000000000000000000000080E7D1
:2B26A200000000000000000000000000000000000000000000000000000000000000000000000000000000000080E7A6
:2B26CD00000000000000000000000000000000000000000000000000000000000000000000000000000000000080E77B
:2B26F800000000000000000000000000000000000000000000000000000000000000000000000000000000000080E750
:2B272300000000000000000000000000000000000000000000000000000000000000000000000000000000000080E724
:2B274E00100000000000000000000000000000000000000000000000000000000000000000000000000000000080F7D9
:2B277900000000000000000000000000000000000000000000000000000000000000000000000000000000000080E7CE
:2B27A400100000000000000000000000000000000000000000000000000000000000000000000000000000000080F783
:2B27CF00000000000000000000000000000000000000000000000000000000000000000000000000000000000080E778
:2B27FA00000000000000000000000000000000000000000000000000000000000000000000000000000000000080E74D
:2B282500000000000000000000000000000000000000000000000000000000000000000000000000000000000080E721
:2B285000000000000000000000000000000000000200000000000000000000000000000000000000000000000080C516
:2B287B00000000080000000000000000000000000000000000000000000000000000000000000000000000000080EFBB
:2B28A600020000000000000000000000000000000000000000000000000000000000000000000000000000000008ED10
:2B28D100020000000000000000000000000000000000000000000000000000000000000000000000000000000080E575
:2B28FC00040000000000000000000000000000000000000000000000000000000000000000000000000000000080E34A
:2B292700020000080000000000000000000000000000000000000000000000000000000000000000000000000080ED0E
:2B295200020000000000000000000000000000000000000000000000000000000000000000000000000000000080E5F3
:2B297D00020000000000000000000000000000000000000000000000000000000000000000000000000000000008ED38
:2B29A800800008800008800008800008800008800008000000000020000220000220000220000220000220000280E7A1
:2B29D300800008800008800008800008800008800008000000000020000220000220000220000220000220000280E776
:2B29FE00000000000000000000000000000000000000000000000000000000000000000000000000000000000080E747
:2B2A2900020026010000000000000000000000000000000000000000000000000000000000000000000000000008AEA3
:2B2A5400000040000000000000000000000000000000000000000000000000000000000000000000000000000080A3F4
:2B2A7F00000004000000000000000000000000000000000000000000000000000000000000000000000000000080A701
:2B2AAA00000020000000000000000000000000000000000000000000000000000000000000000000000000000080C59C
:2B2AD500000020000000000000000000000000000000000000000000000000000000000000000000000000000080C571
:2B2B0000020018000000000000000000000000000000000000000000000000000000000000000000000000000088F414
:2B2B2B00000000000000000000000000000000000000000000000000000000000000000000000000000000000080E718
:2B2B5600000010000000000000000000000000000000000000000000000000000000000000000000000000000080F6CE
:2B2B810000001600000000000000000000000000000000000000000000000000000000000000000000000000008096FD
:2B2BAC00020010000000000000000000000000000000000000000000000000000000000000000000000000000008FCE8
:2B2BD700000014000000000000000000000000000000000000000000000000000000000000000000000000000080B689
:2B2C0200000010000000000000000000000000000000000000000000000000000000000000000000000000000080F621
:2B2C2D00000010000000000000000000000000000000000000000000000000000000000000000000000000000080F6F6
:2B2C5800000090000000000000000000000000000000000000000000000000000000000000000000000000000000F6CB
:2B2C8300020010000000000000000000000000000000000000000000000000000000000000000000000000000008FC10
:2B2CAE00000010000000000000000000000000000000000000000000000000000000000000000000000000000080F675
:2B2CD90000001600000000000000000000000000000000000000000000000000000000000000000000000000008096A4
:2B2D0400000010000000000000000000000000000000000000000000000000000000000000000000000000000080F61E
:2B2D2F00020014000000000000000000000000000000000000000000000000000000000000000000000000000008BC9F
:2B2D5A00000010000000000000000000000000000000000000000000000000000000000000000000000000000080F6C8
:2B2D8500000010000000000000000000000000000000000000000000000000000000000000000000000000000080F69D
:2B2DB000000010000000000000000000000000000000000000000000000000000000000000000000000000000080F672
:2B2DDB00000090000000000000000000000000000000000000000000000000000000000000000000000000000000F647
:2B2E0600020000100000000000000000000000000000000000000000000000000000000000000000000000000008FD8A
:2B2E3100000026000000000000000000000000000000000000000000000000000000000000000000000000000080A52B
:2B2E5C00000000000000000000000000000000000000000000000000000000000000000000000000000000000080E7E4
:2B2E870000003C0100000000000000000000000000000000000000000000000000000000000000000000000000009D46
:2B2EB200020020000000000000000000000000000000000000000000000000000000000000000000000000000008CFFC
:2B2EDD00000020000000000000000000000000000000000000000000000000000000000000000000000000000080C565
:2B2F0800000018000000000000000000000000000000000000000000000000000000000000000000000000000000FE88
:2B2F3300000018000000000000000000000000000000000000000000000000000000000000000000000000000000FE5D
:2B2F5E00000010000000000000000000000000000000000000000000000000000000000000000000000000000080F6C2
:2B2F89000200160000000000000000000000000000000000000000000000000000000000000000000000000000089C61
:2B2FB400000010000000000000000000000000000000000000000000000000000000000000000000000000000080F66C
:2B2FDF00000014000000000000000000000000000000000000000000000000000000000000000000000000000080B67D
:2B300A00000010000000000000000000000000000000000000000000000000000000000000000000000000000080F615
:2B303500020010000000000000000000000000000000000000000000000000000000000000000000000000000008FC5A
:2B306000000010000000000000000000000000000000000000000000000000000000000000000000000000000080F6BF
:2B308B00000050000000000000000000000000000000000000000000000000000000000000000000000000000080B298
:2B30B600000010000000000000000000000000000000000000000000000000000000000000000000000000000080F669
:2B30E1000000160000000000000000000000000000000000000000000000000000000000000000000000000000809698
:2B310C00020010000000000000000000000000000000000000000000000000000000000000000000000000000008FC82
:2B313700000014000000000000000000000000000000000000000000000000000000000000000000000000000080B623
:2B316200000010000000000000000000000000000000000000000000000000000000000000000000000000000080F6BC
:2B318D00000010000000000000000000000000000000000000000000000000000000000000000000000000000080F691
:2B31B800020050000000000000000000000000000000000000000000000000000000000000000000000000000008B8DA
:2B31E300000030000000000000000000000000000000000000000000000000000000000000000000000000000080D43D
:2B320E00000000000000000000000000000000000000000000000000000000000000000000000000000000000080E72E
:2B323900000026010000000000000000000000000000000000000000000000000000000000000000000000000080A41F
:2B326400000020000000000000000000000000000000000000000000000000000000000000000000000000000080C5DA
:2B328F000200240000000000000000000000000000000000000000000000000000000000000000000000000000088F57
:2B32BA00000018000000000000000000000000000000000000000000000000000000000000000000000000000000FED3
:2B32E500000018000000000000000000000000000000000000000000000000000000000000000000000000000000FEA8
:2B331000000000000000000000000000000000000000000000000000000000000000000000000000000000000080E72B
:2B333B00020000000000000000000000000000000000000000000000000000000000000000000000000000000008ED70
:2B336600020000100000800100000000000000002000000000000000000000000000000000000000000000000000EE9B
:2B339100040026000000A00700000000000000E001000000000000000000000000000000000000000000000000808758
:2B33BC00020000000000A00100000000000000800101000000000000000000000000000000000000000000000080D56C
:2B33E700020034010000C00100000000000000C00300000000000000000000000000000000000000000000000080B5CB
:2B341200020000000000200000000000000000000000000000000000000000000000000000000000000000000008CD98
:2B343D000000A0000000200000000000000000000600000000000000000000000000000000000000000000000000831B
:2B346800000020000000000000000000000000000000000000000000000000000000000000000000000000000080C5D4
:2B349300000038000000000000000000000000000000000000000000000000000000000000000000000000000000DCFA
:2B34BE00000000000000800000000000000000000000000000000000000000000000000000000000000000000000EF74
:2B34E900000000000000000000000000000000000000000000000000000000000000000000000000000000000080E751
:2B351400800008800008200008800008800008800008000000000020000220000220000220000220000220000200CF21
:2B353F00800008800008800008800008800008800008000000000020000220000220000220000220000220000280E7FE
:2B356A00000002000000000000000000000000200000000000000000000000000000000000000000000000000080E7AD
:2B359500000000000000000002000000000000000000000000000000000000000000000000000000000000000080C7C2
:2B35C000000000000000000000000000000000000000000000000000000000000000000000000000000000000080E779
:2B35EB00000000000000000000000000000000000000000000000000000000000000000000000000000000000080E74E
:2B361600000002000000800002000000000000200000000000000000000000000000000000000000000000000000CF16
:2B364100000008000000000000000000000000000000000000000000000000000000000000000000000000000000EF67
:2B366C00000004080000000000000000000000008000000000000000000000000000000000000000000000000080A780
:2B369700000000000000000000000000000000000000000000000000000000000000000000000000000000000080E7A1
:2B36C200000000000000000000000000000000000000000000000000000000000000000000000000000000000080E776
:2B36ED00020000000000000000000000000000000000000000000000000000000000000000000000000000000080E54B
:2B371800000000000000000000000000000000000000000000000000000000000000000000000000000000000080E71F
:2B374300000000000000000000000000000000000000000000000000000000000000000000000000000000000080E7F4
:2B376E00000000000000000000000000000000000000000000000000000000000000000000000000000000000080E7C9
:2B379900000000000000000000000000000000000000000000000000000000000000000000000000000000000080E79E
:2B37C400000000000000000000000000000000000000000000000000000000000000000000000000000000000080E773
:2B37EF00000000000000000000000000000000000000000000000000000000000000000000000000000000000080E748
:2B381A00000000000000000000000000000000000000000000000000000000000000000000000000000000000080E71C
:2B384500020000000000000000000000000000000000000000000000000000000000000000000000000000000080E5F1
:2B387000000000000000000000000000000000000000000000000000000000000000000000000000000000000080E7C6
:2B389B00000000000000000000000000000000000000000000000000000000000000000000008000010000000080EE13
:2B38C600000000000000000000000000000000000000000000000000000000000000000000008020000000008082E550
:2B38F100000000000000000000000000000000000000000000000000000000000000000000000000000000000080E745
:2B391C00000000000000000000000000000000000000000000000000000000000000000000000000000000000080E719
:2B39470040100441100441100441100441100441100401000000001004411004411004411004E13804411004E100CD24
:2B397200601886611886611886611886611886611886010000000018866118866118866118866159866118866181A3D1
:02399D00FFFF2A
:00000001FF
