:020000040000FA
:2B000000FFFF62FF2500FFFFFFFFFFFFFFFFFFFFFFFFFFFFFFFFFFFFFFFFFFFFFFFFFFFFFFFFFFFFFFFFFFFFFFFFFF76
:2B002B006018866118866118866118866118866118860100000000F05CD71BDCC11D5C777087C11DDC6118DC610086F8
:2B0056004010044110044110044110044110044110040100000000288AA2100AA1108A422804A1100A41100A4180E7AC
:2B008100000000000000000000000000000000000000000000000000000000000000000000000000000000000080E7ED
:2B00AC00000000000000000000000000000000000000000000000000000000000000000000000000000000000080E7C2
:2B00D700000000000000000000000000000000000000000000000000000000000000000000000000000000000080E797
:2B010200000000000000000000000000000000000000000000000000000000000000000000000000000000000080E76B
:2B012D00000000000000000000000000000000000000000000000000000000000000000000000000000000000080E740
:2B015800000000000000000000000000000000000000000000000000000000000000000000000000000000000080E715
:2B018300000000000000000000000000000000000000000000000000000000000000000000000000000000000080E7EA
:2B01AE000000000000000000000000000000000000000000000000000000000000002800000010000000000000A0EC62
:2B01D900000000000000000000000000000000000000000000000000000000000000000000000000000000000080E794
:2B020400000000000000000000000000000000000000000000000000000000000000000000000000000000000080E768
:2B022F00000000000000000000000000000000000000000000000000000000000000000000000000000000000080E73D
:2B025A00000000000000000000000000000000000000000000000000000000000000000000000000000000000080E712
:2B028500000000000000000000000000000000000000000000000000000000000000000000000000000000000080E7E7
:2B02B000000000000000000000000000000000000000000000000000000000000000010000000000000000000080E6BC
:2B02DB00000000000000000000000000000000000000000000000000000000000000000000000000000000000080E791
:2B030600000000000000000000000000000000000000000000000000000000000000000000000000000000000080E765
:2B0331000000000000000000000000000000000000000000000000000000000000C0000000000800000000000080A3B6
:2B035C00000000000000000000000000000000000000000000000000000000000040000000000400000000000080E7CB
:2B038700000000000000000000000000000000000000000000000000820000020000000000002000002000000000EF98
:2B03B200000000000000000000000000000000000000000000000000800000000000000000000000002000000088E513
:2B03DD00020000000000000000000000000000000000000000000000000000000000000000000000000000000080E58E
:2B040800020000000000000000000000000000000000000000000000020000020000000000000000000000000080E55E
:2B043300020000000000000000000000000000000000000000000000000000000000000000002000000000000080E715
:2B045E00020000000000000000000000000000000000000000000000000000000000000000000000000000000080E50C
:2B048900000000000000000000000000000000000000000000000000000000000000000000000000000000000008EF51
:2B04B400800008800008800008800008800008800008000000000020000220000220000220000220000220000280E7BA
:2B04DF00800008800008800008800008800008800008000000000020000220000220000220000220000220000280E78F
:2B050A00000000000000000000000000000000000000000000000000000000000000000000002000000000000080E541
:2B0535000000000000000000000000000000000000000000000000000000000000F8020000800700000000000088EDA5
:2B056000020000000000000000000000000000000000000000000000000000000040000000000400000000000008ED35
:2B058B000200000000000000000000000000000000000000000000000000000000F0400000001F00000000000090B5AF
:2B05B600020000000000000000000000000000000000000000000000000000000060020000000600000000000008EFB9
:2B05E100020000000000000000000000000000000000000000000000000000000060000000002600000000000008EF70
:2B060C00000000000000000000000000000000000000000000000000000000000060080000000E00000000000088E7DE
:2B0637000000000000000000000000000000000000000000000000000000000000E0000000000E00000000000080E743
:2B066200000000000000000000000000000000000000000000000000000000000000200000002000000000000080C5E8
:2B068D00000000000000000000000000000000000000000000000000000000000018000000800D00000000000000A3FA
:2B06B800000000000000000000000000000000000000000000000000000000000040000000001600000000000008CCED
:2B06E300020000000000000000000000000000000000000000000000000000000050200000000700000000000080E70C
:2B070E0002000000000000000000000000000000000000000000000000000000000000000000060000000000008083B5
:2B0739000200000000000000000000000000000000000000000000000000000000E0200000000601000000000000D5B7
:2B07640002000000000000000000000000000000000000000000000000000000004010000000060400000000008097F7
:2B078F000000000000000000000000000000000000000000000000000000000000E0000000000E00000000000008EF5A
:2B07BA00000000000000000000000000000000000000000000000000000000000000000000008000000000000080EF25
:2B07E500000000000000000000000000000000000000000000000000000000000058400000800900000000000000E3E5
:2B081000000000000000000000000000000000000000000000000000000000000000000000000400000000000080A396
:2B083B000000000000000000000000000000000000000000000000000000000000100800000005020000000000808B68
:2B086600020000000000000000000000000000000000000000000000000000000000040000004000000000000008ED2C
:2B089100020000000000000000000000000000000000000000000000000000000000000000000E000000000000888B19
:2B08BC00020000000000000000000000000000000000000000000000000000000080000000000400000000000088A95A
:2B08E7000200000000000000000000000000000000000000000000000000000000000000000046000000000000088F07
:2B091200000000000000000000000000000000000000000000000000000000000000010000000000000000000080E653
:2B093D000000000000000000000000000000000000000000000000000000000000F80000008005040000000000008589
:2B0968000000000000000000000000000000000000000000000000000000000000600000000000000000000000808103
:2B099300000000000000000000000000000000000000000000000000000000000070010000008100000000000080883F
:2B09BE00000000000000000000000000000000000000000000000000000000000040010000004000000000000080A667
:2B09E9000200000000000000000000000000000000000000000000000000000000600000000000000000000000088BEE
:2B0A1400020000000000000000000000000000000000000000000000000000000060400000000800000000000088CBBA
:2B0A3F000200000000000000000000000000000000000000000000000000000000E00000000000000000000000888B97
:2B0A6A00020000000000000000000000000000000000000000000000000000000000000000000004000000000008ADA6
:2B0A9500000000000000000000000000000000000000000000000000000000000018400000800700000000000080C116
:2B0AC000000000000000000000000000000000000000000000000000000000000040000000001600000000000080C471
:2B0AEB00000000000000000000000000000000000000000000000000000000000010080000000F000000000000008930
:2B0B1600000000000000000000000000000000000000000000000000000000000000040000000400000000000080A785
:2B0B41000000000000000000000000000000000000000000000000000000000000000000000016000000000000808073
:2B0B6C000200000000000000000000000000000000000000000000000000000000000000000006000000000000088BC3
:2B0B9700020000000000000000000000000000000000000000000000000000000000040000000E02000000000088AFE6
:2B0BC200020000000000000000000000000000000000000000000000000000000000000000000000000000000008ED11
:2B0BED00020000000000000000000000000000000000000000000000000000000018400000800104000000000008ED09
:2B0C1800000000000000000000000000000000000000000000000000000000000000000000000400000000000080A38A
:2B0C4300000000000000000000000000000000000000000000000000000000000010080000008100000000000080E786
:2B0C6E00000000000000000000000000000000000000000000000000000000000000040000004000000000000080E7B0
:2B0C9900000000000000000000000000000000000000000000000000000000000000000000000000000000000080E7C9
:2B0CC400000000000000000000000000000000000000000000000000000000000040080000000000000000000080AB92
:2B0CEF00020000000000000000000000000000000000000000000000000000000000000000000804000000000088AD97
:2B0D1A00020000000000000000000000000000000000000000000000000000000000000000000000000000000008EDB7
:2B0D4500020000000000000000000000000000000000000000000000000000000018400000800104000000000008EDAF
:2B0D7000020000000000000000000000000000000000000000000000000000000000040000000000000000000008E961
:2B0D9B000000000000000000000000000000000000000000000000000000000000700000000081000000000000808933
:2B0DC600000000000000000000000000000000000000000000000000000000000000000000004000000000000080E35F
:2B0DF100000000000000000000000000000000000000000000000000000000000000080000000000000000000080EF60
:2B0E1C0000000000000000000000000000000000000000000000000000000000000000000000040200000000008083A2
:2B0E4700000000000000000000000000000000000000000000000000000000000000000000000800000000000088EF01
:2B0E7200020000000000000000000000000000000000000000000000000000000000020000000000000000000008EF5A
:2B0E9D000200000000000000000000000000000000000000000000000000000000D8000000800104000000000010F0CB
:2B0EC8000200000000000000000000000000000000000000000000000000000000600000000040000000000000088FC6
:2B0EF30002000000000000000000000000000000000000000000000000000000007002000000010000000000000889CE
:2B0F1E00000000000000000000000000000000000000000000000000000000000060200000000000000000000008A977
:2B0F49000000000000000000000000000000000000000000000000000000000000E00000000080000000000000008994
:2B0F7400000000000000000000000000000000000000000000000000000000000060000000000600000000000080E785
:2B0F9F001E00000000000000000000000000000000000000000000000000000000E0040000000000000000000088930A
:2B0FCA001E00000000000000000000000000000000000000000000000000000000000000000000000000000000F08E60
:2B0FF500000000000000000000000000000000000000000000000000000000000000000000000000000000000080E76A
:2B102000800008800008800008800008800008800008000000000020000220000220000220000220000220000280E742
:2B104B00800008800008800008800008800008800008000000000020000220000220000220000220000220000280E717
:2B107600000000000000000000000000000000000000000000000000000000000088000000800000000000000000E760
:2B10A100000000000000000000000000000000000000000000000000000000000000000000000000000000000080E7BD
:2B10CC00000000000000000000000000000000000000000000000000000008000040000000000000000000000880AB7E
:2B10F700000000000000000000000000000000000000000000000000000000000000000000000000002000000080E549
:2B112200000000000000000000000000000000000000000000000000000008000088000000800200002000000800CF99
:2B114D00000000000000000000000000000000000000000000000000000000000000400000000404000000000080A30C
:2B117800000000000000000000000000000000000000000000000000000000000080000000000200000000000000C505
:2B11A300000000000000000000000000000000000000000000000000000000000020000000000103000000000080E499
:2B11CE00000000000000000000000000000000000000000000000000000000000000000000000103000000000080C6AC
:2B11F900000000000000000000000000000000000000000000000000000000000000200000004000000000000080C328
:2B122400000000000000000000000000000000000000000000000000000000000000100000000004000000000008BFC4
:2B124F00000000000000000000000000000000000000000000000000000000000000000000000000000000000080E70D
:2B127A00000000000000000000000000000000000000000000000000000000000000000000000000000000000080E7E2
:2B12A500000000000000000000000000000000000000000000000000000000000000000000000000000000000080E7B7
:2B12D000000000000000000000000000000000000000000000000000000000000000000000000000000000000080E78C
:2B12FB00000000000000000000000000000000000000000000000000000000000010080000008000000000000080F6BA
:2B132600000000000000000000000000000000000000000000000000000000000000000000000000000000000080E735
:2B135100000000000000000000000000000000000000000000000000000000000000100000000000000000000080F7EA
:2B137C00000000000000000000000000000000000000000000000000000000000000020000000000000000000080E5DF
:2B13A700000000000000000000000000000000000000000000000000000000000000000000000000000000000080E7B4
:2B13D200000000000000000000000000000000000000000000000000000000000000000000000000000000000080E789
:2B13FD00000000000000000000000000000000000000000000000000000000000000010000000000000000000080E65E
:2B142800000000000000000000000000000000000000000000000000000000000000000000010000000000000080E632
:2B1453000000000000000000000000000000000000000000000000000000000000000000000000000000000000C0A30B
:2B147E00000000000000000000000000000000000000000000000000000000000000000000000000000000000080E7DC
:2B14A900000000000000000000000000000000000000000000000000000000000000000000000000000000000080E7B1
:2B14D4000000000000000000000000000000000000000000000000000000000000000000000000000000000000A0C588
:2B14FF00000000000000000000000000000000000000000000000000000000000000000040000000000000000080A35F
:2B152A000000000000000000000000000000000000000000000000000000000000000000200000000000000000E0A3F3
:2B155500000000000000000000000000000000000000000000000000000000000000000000000000000000000080E704
:2B158000000000000000000000000000000000000000000000000000000000000000000000000000000000000080E7D9
:2B15AB00000000000000000000000000000000000000000000000000000000000080000080000080000000000000E7AE
:2B15D600000000000000000000000000000000000000000000000000000000000040400040000040000000000080E387
:2B160100000000000000000000000000000000000000000000000000000000000000A2000002200000A000000000C793
:2B162C00020000000000000000000000000000000000000000000000000000000000800000000000000000000088E5A4
:2B165700000000000000000000000000000000000000000000000000000000000000000000000000000000000008EF71
:2B168200000000000000000000000000000000000000000000000000000000000000020000002000000000000090F695
:2B16AD0000000000000000000000000000000000000000000000000000000000000020000002000000A000000008C781
:2B16D800000000000000000000000000000000000000000000000000000000000000000000000000000000000008EFF0
:2B170300020000000000000000000000000000000000000000000000000000000000000000000000000000000008EDC4
:2B172E00800008800008800008800008800008800008000000000020000220000220000220000220000220000280E72D
:2B175900800008800008800008800008800008800008000000000020000220000220000220000220000220000280E702
:2B178400000000000000000000000000000000000000000000000000000000000000000000020000000000000080E5D3
:2B17AF000000000000000000000000000000000000000000000000000000000000D8020078000000000000000088CF66
:2B17DA00020000000000000000000000000000000000000000000000000000000060020040000000000000000008CD6B
:2B1805000200000000000000000000000000000000000000000000000000000000700000F0400000000000000010B452
:2B183000020000000000000000000000000000000000000000000000000000000060200060080000000000000008C5D6
:2B185B000200000000000000000000000000000000000000000000000000000000E0000060000000000000000088EDAB
:2B188600000000000000000000000000000000000000000000000000000000000060000060000000000000000008EF80
:2B18B100000000000000000000000000000000000000000000000000000000000060100060400000000000000080B7C5
:2B18DC00000000000000000000000000000000000000000000000000000000000000000000020000000000000080E57A
:2B1907000000000000000000000000000000000000000000000000000000000000782000D8000000000000000000E560
:2B193200000000000000000000000000000000000000000000000000000000000040100060000000000000000080D585
:2B195D000200000000000000000000000000000000000000000000000000000000F0000070020000000000000088EF84
:2B198800020000000000000000000000000000000000000000000000000000000060000060200000000000000008CD7D
:2B19B3000200000000000000000000000000000000000000000000000000000000E00400E0000000000000000008E952
:2B19DE00020000000000000000000000000000000000000000000000000000000060040060100000000000000008F907
:2B1A09000000000000000000000000000000000000000000000000000000000000E00000E0000000000000000080E78B
:2B1A3400000000000000000000000000000000000000000000000000000000000000000000080000000000000080EF10
:2B1A5F00000000000000000000000000000000000000000000000000000000000078040098000018400000000080DC94
:2B1A8A00000000000000000000000000000000000000000000000000000000000060000040200000040000000080E10C
:2B1AB500000000000000000000000000000000000000000000000000000000000070020050000010000000000080D6DE
:2B1AE000020000000000000000000000000000000000000000000000000000000040000000000060000000000008CF62
:2B1B0B000200000000000000000000000000000000000000000000000000000000E04000E0100000080000000008B5D8
:2B1B3600020000000000000000000000000000000000000000000000000000000060200040000000000000000008EFCB
:2B1B6100020000000000000000000000000000000000000000000000000000000060000060040000000000000008E9A2
:2B1B8C00000000000000000000000000000000000000000000000000000000000000000000400000000000000080A7C7
:2B1BB700000000000000000000000000000000000000000000000000000000000018400078000000000000000080C1F2
:2B1BE2000000000000000000000000000000000000000000000000000000000000000000600000000000000000808177
:2B1C0D00000000000000000000000000000000000000000000000000000000000010080070010000000000000080881B
:2B1C3800000000000000000000000000000000000000000000000000000000000000040040010000000000000080A616
:2B1C63000200000000000000000000000000000000000000000000000000000000000000600000000000000000088B61
:2B1C8E00020000000000000000000000000000000000000000000000000000000040080060040000000000000008C3B2
:2B1CB9000200000000000000000000000000000000000000000000000000000000000000E00000000000000000888B0B
:2B1CE400020000000000000000000000000000000000000000000000000000000000000000100000000000000008FDBE
:2B1D0F0000000000000000000000000000000000000000000000000000000000007804001800005840000000000098E5
:2B1D3A00000000000000000000000000000000000000000000000000000000000060010040000000000000000080C499
:2B1D65000000000000000000000000000000000000000000000000000000000000F000001008001008000000000090A3
:2B1D9000000000000000000000000000000000000000000000000000000000000040000000040000040000000080A3BD
:2B1DBB00000000000000000000000000000000000000000000000000000000000060010000000000000000000008880C
:2B1DE600020000000000000000000000000000000000000000000000000000000060400000000000000000000080C3ED
:2B1E11000200000000000000000000000000000000000000000000000000000000600000800400000400000000008339
:2B1E3C00020000000000000000000000000000000000000000000000000000000000000000100000000000000080F5F4
:2B1E6700020000000000000000000000000000000000000000000000000000000018400018000058400000000000B88E
:2B1E9200000000000000000000000000000000000000000000000000000000000040000000000000000000000008AB32
:2B1EBD00000000000000000000000000000000000000000000000000000000000010080010080010080000000080FE34
:2B1EE800000000000000000000000000000000000000000000000000000000000000040000040000040000000080E360
:2B1F1300000000000000000000000000000000000000000000000000000000000000000000000000000000000080E73C
:2B1F3E00000000000000000000000000000000000000000000000000000000000000000040000080000000000000A315
:2B1F6900020000000000000000000000000000000000000000000000000000000080080080200000000000000008C556
:2B1F9400020000000000000000000000000000000000000000000000000000000000000000000000000000000008ED2B
:2B1FBF000200000000000000000000000000000000000000000000000000000000184000F8010058400000000008D72D
:2B1FEA00020000000000000000000000000000000000000000000000000000000000000040000000000000000008A9D9
:2B2015000000000000000000000000000000000000000000000000000000000000100800F0400010080000000000D070
:2B204000000000000000000000000000000000000000000000000000000000000000040060400000040000000080C18C
:2B206B000000000000000000000000000000000000000000000000000000000000000000E000000000000000000081E9
:2B209600000000000000000000000000000000000000000000000000000000000040400060000000200000000080A5FA
:2B20C10000000000000000000000000000000000000000000000000000000000008000006010000000000000008899E3
:2B20EC00020000000000000000000000000000000000000000000000000000000000080000080000000000000008EDC2
:2B2117000200000000000000000000000000000000000000000000000000000000D8000098000018400000000010E9DA
:2B214200020000000000000000000000000000000000000000000000000000000060010040200040000000000008AABD
:2B216D00020000000000000000000000000000000000000000000000000000000070000050000010080000000008D68F
:2B219800000000000000000000000000000000000000000000000000000000000060200080000000040000000088ADE3
:2B21C3000000000000000000000000000000000000000000000000000000000000E00000E0000000000000000080E7CA
:2B21EE000000000000000000000000000000000000000000000000000000000000E0000040000000040000000000C1E1
:2B2219000E0000000000000000000000000000000000000000000000000000000060000060200080000000000098D0C4
:2B2244001E00000000000000000000000000000000000000000000000000000000000000000000000000000000D0ACD5
:2B226F00000000000000000000000000000000000000000000000000000000000000000000000000000000000080E7DD
:2B229A00800008800008800008800008800008800008000000000020000220000220000220000220000220000280E7B6
:2B22C500800008800008800008800008800008800008000000000020000220000220000220000220000220000280E78B
:2B22F00000000000000000000000000000000000000000000000000000000000000800008000000022B4000000808263
:2B231B00000000000000000000000000000000000000000000000000000000000000000000000000000000000080E730
:2B234600000000000000000000000000000000000000000000000000010008000000000800000080800000001080E7E4
:2B237100000000000000000000000000000000000000000000000000000000000080000000840000000000400080ABD2
:2B239C00000000000000000000000000000000000000000000000000010008000088000880840080A2300040108082D5
:2B23C700000000000000000000000000000000000000000000000000000000000010400000000040400000000080B2E9
:2B23F2000000000000000000000000000000000000000000000000000000000000A0200000040000000000000000E11B
:2B241D00000000000000000000000000000000000000000000000000000000000000040020180010000000000080C800
:2B244800000000000000000000000000000000000000000000000000000000000000000010000000000000000080F6E3
:2B24730000000000000000000000000000000000000000000000000000000000004000000020000000000000008083DB
:2B249E00000000000000000000000000000000000000000000000000000000000000130080700020080000000088A6BA
:2B24C900000000000000000000000000000000000000000000000000000000000000200000000000000000000080C781
:2B24F400000000000000000000000000000000000000000000000000000000000000000000000000000000000080E756
:2B251F00000000000000000000000000000000000000000000000000000000000000000000400000000000000080A72A
:2B254A000000000000000000000000000000000000000000000000000000000000000000000A0000000000000080EDEF
:2B257500000000000000000000000000000000000000000000000000000000000020080000000000000000000080CDC6
:2B25A000000000000000000000000000000000000000000000000000000000000000000000000000000000000080E7A9
:2B25CB00000000000000000000000000000000000000000000000000000000000000000000060000000000000080E17E
:2B25F600000000000000000000000000000000000000000000000000000000000000080000000000000000000080EF43
:2B262100000000000000000000000000000000000000000000000000000000000000000000000000000000000080E727
:2B264C000000000000000000000000000000000000000000000000000000000200000800000000000000000800C0A1F0
:2B267700000000000000000000000000000000000000000000000000000000000000000000000000000000020080E5D1
:2B26A200000000000000000000000000000000000000000000000000000000080000000000000000000000000080EF96
:2B26CD00000000000000000000000000000000000000000000000000000000000000000000000000000000010080E67B
:2B26F800000000000000000000000000000000000000000000000000000000000000400000000000000000000080A750
:2B272300000000000000000000000000000000000000000000000000000000000000000000000000000000000080E724
:2B274E00000000000000000000000000000000000000000000000000000000000000000000000000000000000090F6DA
:2B277900000000000000000000000000000000000000000000000000000000000000000000000000000000000080E7CE
:2B27A4000000000000000000000000000000000000000000000000000000000100000000000000000000200000D09188
:2B27CF000000000000000000000000000000000000000000000000000000000400000000000000000000000000A0C17A
:2B27FA00100000000000000000000000000000000000000000000000000000000000000000000000000000000080F72D
:2B282500000000000000000000000000000000000000000000000000000080000080000000000000000080000000E721
:2B285000000000000000000000000000000000000000000000000000000060000000010000000000000040000080C478
:2B287B00000000000000000000000000000000000000000000000080000002002080000010000000024000020082F04A
:2B28A600000000000000000000000000000000000000000000000080000000000000000010000000004000000088FAB5
:2B28D100020000000000000000000000000000000000000000000000000000000000000000000000000000000008EDE5
:2B28FC00020000000000000000000000000000000000000000000000000002002000000000000000020000020090D623
:2B29270002000000000000000000000000000000000000000000000000000000008000000000000000000000008BDD9B
:2B295200020000000000000000000000000000000000000000000000000000000000000000000000000000000008ED63
:2B297D00000000000000000000000000000000000000000000000000000000000000000000000000000000000008EF38
:2B29A800800008800008800008800008800008800008000000000020000220000220000220000220000220000280E7A1
:2B29D300800008800008800008800008800008800008000000000020000220000220000220000220000220000280E776
:2B29FE00000000000000000000000000000000000000000000000000000000000000000000000000000000020080E547
:2B2A29000000000000000000000000000000000000000000000000000000F80200F8020000000000000078000000987E
:2B2A5400020000000000000000000000000000000000000000000000000040000040000000000000000040000008A9E4
:2B2A7F000200000000000000000000000000000000000000000000000000F04000F04000000000000000F0400088DA38
:2B2AAA00020000000000000000000000000000000000000000000000000060020060000000000000000060000008894C
:2B2AD5000200000000000000000000000000000000000000000000000000600000600200000000000000600200088B1D
:2B2B00000000000000000000000000000000000000000000000000000000600000600400000000000000600000808581
:2B2B2B000000000000000000000000000000000000000000000000000000601000600000000000000000E0100000813E
:2B2B5600000000000000000000000000000000000000000000000000000000100000200000000000000000020080D5CD
:2B2B81000000000000000000000000000000000000000000000000000000980000180000000000000000D8000000BAE7
:2B2BAC00000000000000000000000000000000000000000000000000000040000040000000000000000060010008888D
:2B2BD7000200000000000000000000000000000000000000000000000000502000502000000000000000700000089ADF
:2B2C0200020000000000000000000000000000000000000000000000000000000080000000000000000060200010B2E3
:2B2C2D000200000000000000000000000000000000000000000000000000E00800E00000000000000000E000008883C7
:2B2C5800020000000000000000000000000000000000000000000000000040200040000000000000000060000008AB9C
:2B2C83000000000000000000000000000000000000000000000000000000600000E01000000000000000E0200008B915
:2B2CAE00000000000000000000000000000000000000000000000000000000000000020000000000000000200080C594
:2B2CD9000000000000000000000000000000000000000000000000000000584000D8000000000000000018000080BE0A
:2B2D0400000000000000000000000000000000000000000000000000000000000060010000000000000040000080C4BF
:2B2D2F000000000000000000000000000000000000000000000000000000100800700000000000000000D0010000DD43
:2B2D5A000200000000000000000000000000000000000000000000000000000400600000000000000000800000888F51
:2B2D8500020000000000000000000000000000000000000000000000000000000060100000000000000060000008FD4C
:2B2DB000020000000000000000000000000000000000000000000000000000400060400000000000000040040008CBFF
:2B2DDB000200000000000000000000000000000000000000000000000000800000E00000000000000000E0000088ED16
:2B2E0600000000000000000000000000000000000000000000000000000000000000000000000000000000000080E73A
:2B2E31000000000000000000000000000000000000000000000000000000780400584000000000000000584000009C2E
:2B2E5C0000000000000000000000000000000000000000000000000000006000000000000000000000000000008081EA
:2B2E8700000000000000000000000000000000000000000000000000000070010010080000000000000010080080916E
:2B2EB200000000000000000000000000000000000000000000000000000040010000080000000000000000040080AE7A
:2B2EDD000200000000000000000000000000000000000000000000000000600000800000000000000000000000888BD5
:2B2F08000200000000000000000000000000000000000000000000000000600800800000000000000000000800888B99
:2B2F33000200000000000000000000000000000000000000000000000000E00000000000000000000000000000888B7E
:2B2F5E00020000000000000000000000000000000000000000000000000000000000000000000000000000000008ED51
:2B2F8900000000000000000000000000000000000000000000000000000018400078040000000000000078040000BE0F
:2B2FB400000000000000000000000000000000000000000000000000000040000060010000000000000060010080A3CD
:2B2FDF000000000000000000000000000000000000000000000000000000100800F00000000000000000F0000080FE51
:2B300A00000000000000000000000000000000000000000000000000000000040040000000000000000040000080E3B4
:2B303500000000000000000000000000000000000000000000000000000000000060010000000000000060010080E747
:2B306000020000000000000000000000000000000000000000000000000080000060040000000000000060000088E98E
:2B308B000200000000000000000000000000000000000000000000000000000000E00000000000000000E0040008E963
:2B30B600020000000000000000000000000000000000000000000000000000000000000000000000000000000008EDF8
:2B30E100020000000000000000000000000000000000000000000000000018400018400000000000000018400088B47E
:2B310C00000000000000000000000000000000000000000000000000000000000040000000000000000040000080E7B1
:2B313700000000000000000000000000000000000000000000000000000010080010080000000000000010080080FEA7
:2B316200000000000000000000000000000000000000000000000000000000040000080000000000000000040080EFC3
:2B318D00000000000000000000000000000000000000000000000000000000000080000000000000000000000000E7B0
:2B31B8000000000000000000000000000000000000000000000000000000400400002000000000000000000000808781
:2B31E300020000000000000000000000000000000000000000000000000080000080000000000000000080080088E5CA
:2B320E00020000000000000000000000000000000000000000000000000000020000000000000000000000000008EF9A
:2B3239000200000000000000000000000000000000000000000000000000D8000018400000000000000018400008B028
:2B3264000200000000000000000000000000000000000000000000000000600000000000000000000000000000088B4A
:2B328F000000000000000000000000000000000000000000000000000000700200100800000000000000100800809260
:2B32BA000000000000000000000000000000000000000000000000000000600000000800000000000000000400808D70
:2B32E5000000000000000000000000000000000000000000000000000000E0010080000000000000000000000080805D
:2B331000000000000000000000000000000000000000000000000000000060200040000000000000000040100080B151
:2B333B000000000000000000000000000000000000000000000000000000E000008004000000000000000000008085FE
:2B336600020000000000000000000000000000000000000000000000000000000000200000000000000060000008AB07
:2B339100020000000000000000000000000000000000000000000000000018400018000000000000000018400088F4CB
:2B33BC00020000000000000000000000000000000000000000000000000000040040000000000000000000040008A9EB
:2B33E7000200000000000000000000000000000000000000000000000000100000502000000000000000100000089889
:2B341200000000000000000000000000000000000000000000000000000000000000400000000000000000000080A728
:2B343D0000000000000000000000000000000000000000000000000000000008006000000000000000000008008081F3
:2B346800000000000000000000000000000000000000000000000000000000000040000000000000000000000080A3D6
:2B3493001E00000000000000000000000000000000000000000000000000600000E0200000000000000000000088D137
:2B34BE000E000000000000000000000000000000000000000000000000000000000000000000000000000000007896C7
:2B34E900000000000000000000000000000000000000000000000000000000000000000000000000000000000080E751
:2B351400800008800008800008800008800008800008000000000020000220000220000220000220000220000280E729
:2B353F00800008800008800008800008800008800008000000000020000220000220000220000220000220000280E7FE
:2B356A00000000000000000000000000000000000000000000000000000008000000000400000000000000000C80EFAF
:2B359500000000000000000000000000000000000000000000000000000000000000000000000000000000000080E7A4
:2B35C000000000000000000000000000000000000000000000000000000040000000000400000000000000800400AB6D
:2B35EB00000000000000000000000000000000000000000000000000000000002080022000802000000000004080EBA8
:2B361600000000000000000000000000000000000000000000000000000028002080022000802000000000804800C96E
:2B3641000000000000000000000000000000000000000000000000000000004100004000000000000000204000808479
:2B366C00000000000000000000000000000000000000000000000000000000000020000000000000000080000000C5CE
:2B369700000000000000000000000000000000000000000000000000000000000020100000000000000010000080C484
:2B36C200000000000000000000000000000000000000000000000000000000100000200000000000000000040080D356
:2B36ED000000000000000000000000000000000000000000000000000000402000402400000000000000402000808787
:2B371800000000000000000000000000000000000000000000000000000000000000000000000000000000100080F7FF
:2B374300000000000000000000000000000000000000000000000000000000000000000000000000000000000080E7F4
:2B376E00000000000000000000000000000000000000000000000000000000000000000000000000000000000080E7C9
:2B379900000000000000000000000000000000000000000000000000000010000000000000000000000000000080F67F
:2B37C400000000000000000000000000000000000000000000000000000000000000100000000000000000000080F753
:2B37EF00000000000000000000000000000000000000000000000000000000080010080000000000000000000080F619
:2B381A000000000000000000000000000000000000000000000000000000002000500000000000000000000000809201
:2B384500000000000000000000000000000000000000000000000000000000000000020000000000000000100080F5D1
:2B387000000000000000000000000000000000000000000000000000000000000000000000000000000000000080E7C6
:2B389B00000000000000000000000000000000000000000000000000000000020000000000000000000000000080E59B
:2B38C600000000000000000000000000000000000000000000000000000080080000000000000000000000000000EF60
:2B38F100000000000000000000000000000000000000000000000000000000000000000000000000000000000080E745
:2B391C00000000000000000000000000000000000000000000000000000000000000000000000000000000000080E719
:2B3947004010044110044110044110044110044110040100000000280441100EA1100AA1100AA12884A2108AA280EDBE
:2B3972006018866118866118866118866118866118860100000000F086611896C11DDCC11DDCC1F506D71D3CD7859758
:02399D00FFFF2A
:00000001FF
