:020000040000FA
:2B000000FFFF62FF2500FFFFFFFFFFFFFFFFFFFFFFFFFFFFFFFFFFFFFFFFFFFFFFFFFFFFFFFFFFFFFFFFFFFFFFFFFF76
:2B002B00601886611886611886611886651886651886010000000018866118866118866118866118866118866180E747
:2B005600401004411004411004411084431084431004010000000010044110044110044110044110044110044180E718
:2B008100000000000000000000000000000000000000000000000000000000000000000000000000000000000080E7ED
:2B00AC00000000000000000000000000000000000000000000000000000000000000000000000000000000000080E7C2
:2B00D700000000000000000000000000020010020000000000000000000000000000000000000000000000000080F674
:2B010200000000000000000000000010000000000000000000000000000000000000000000000000000000000080F64C
:2B012D00000000000000000000000000000000000000000000000000000000000000000000000000000000000028CDB2
:2B015800020000000000000000000000000000000000000000000000000000000000000000000000000000000080E515
:2B018300000000000000000000000000000000000000000000000000000000000000000000000000000000000080E7EA
:2B01AE00080000000000000000000000000000000000000000000000000000000000000000000000000000000080EFAF
:2B01D900000000000000000000000000000000000000000000000000000000000000000000000000000000000080E794
:2B020400000000000000000000000000000000000000000000000000000000000000000000000000000000000080E768
:2B022F00000000000000000000000000000000000000000000000000000000000000000000000000000000000080E73D
:2B025A00000000000000000000000000000000000000000000000000000000000000000000000000000000000080E712
:2B028500000000000000000000000000000000000000000000000000000000000000000000000000000000000080E7E7
:2B02B000020000000000000000000000000000000000000000000000000000000000000000000000000000000080E5BC
:2B02DB00000000000000000000000000000000000000000000000000000000000000000000000000000000000080E791
:2B030600000000000000000000000000000000000000000000000000000000000000000000000000000000000080E765
:2B033100000000000000000000000000000000000000000000000000000000000000000000000000000000000080E73A
:2B035C00000000000020000000000000000020000000000000000000000000000000000000000000000000000080E7CF
:2B038700000080000000000000000000000002000000000000000000880000002000000000000020000000000080E79A
:2B03B200020000000000000000000000000000000000000000000000000000000000000000000000000000000008ED29
:2B03DD00000000000000000000000000000000000000000000000000000000002000000000000000000040000080A174
:2B040800000000000000000000000000000000000000000000000000000000000000000000000000000000000080E762
:2B043300000080000000000000000000000002000000000000000000800200000000000000000000000000000080ED2D
:2B045E00000000000000000000000000000000000000000000000000000000000000000000000000000000000080E70C
:2B048900020000000000000000000000000000000000000000000000000000000000000000000000000000000008ED51
:2B04B400800008800008800008800008800008800008000000000020000220000220000220000220000220000280E7BA
:2B04DF00800008800008800008800008800008800008000000000020000220000220000220000220000220000280E78F
:2B050A00000000000000000000000000000000000000000000000000000000000000000000000040000000020080A163
:2B053500020000000000000000000000000000000000000000000088400000000000000000000058010018000008E078
:2B056000020000000000000000000000000000000000000000000068400000000000000000000000010000200088E23B
:2B058B000400000000000000000000000000000000000000000000F0000000000000000000000090000090000010859C
:2B05B600020000000000000000000000000000000000000000000068000000000000000000000040200080000008E7E1
:2B05E100020000000000000000000000000000000000000000000068000000000000000000000040000080000008C7F6
:2B060C00020000000000000000000000000000000000000000000000000000000000000000000000000000000008EDCC
:2B063700000000000000000000000000000000000000000000000000000000000000000000000060200060000080C771
:2B066200000000000000000000000000000000000000000000000000000000000000000000000000000080000000E706
:2B068D00000006020000000000000000000000000000000000000098020000000000000000000058020018000080D8D6
:2B06B800020020000000000000000000000000000000000000000000000000000000000000000000200000000008EFDE
:2B06E3000000240000000000000000000000000000000000000000D0040000000000000000000050000090400080D084
:2B070E00000000000000000000000000000000000000000000000000010000000000000000000000020000400080A459
:2B0739000000000000000000000000000000000000000000000000800000000000000000000000400000C0000080E7AE
:2B076400000018000000000000000000000000000000000000000060000000000000000000000060000000000000FE94
:2B078F00020018000000000000000000000000000000000000000040200000000000000000000060200000200088F6A7
:2B07BA00000000000000000000000000000000000000000000000000000000000000000000000080000000020000E5AD
:2B07E5000000000000000000000000000000000000000000000000000000000000000000000000180000D8000000A356
:2B081000000000000000000000000000000000000000000000000000000000000000000000000000000000000080E756
:2B083B00020000000000000000000000000000000000000000000000000000000000000000000090400090010008AC7B
:2B086600020000000000000000000000000000000000000000000000000000000000000000000060400000010008CAF2
:2B0891000400000000000000000000000000000000000000000000000000000000000000000000800000E000009094B4
:2B08BC00020000000000000000000000000000000000000000000000000000000000000000000000000000000008ED1A
:2B08E700020000000000000000000000000000000000000000000000000000000000000000000000000060200008ABB1
:2B091200020000000000000000000000000000100000000000000000000000000000000000000000000000200008DDA3
:2B093D00000000000000000000000000000026000000000000000000000000000000000000000098020098000080A710
:2B096800000000000000000000000000000018000000000000000000000000000000000000000000010000010000FE4C
:2B099300000000000000000000000000000084000000000000000000000000000000000000000090000090000000A7EE
:2B09BE00020000000000000000000000000018020000000000000000000000000000000000000080000000000008F674
:2B09E900020000000000000000000000000018000000000000000000000000000000000000000080000000000080FCCD
:2B0A14000400000000000000000000000000180000000000000000000000000000000000000000000000600000009C9F
:2B0A3F00020000000000000000000000000018000000000000000000000000000000000000000040040060000000DAF4
:2B0A6A000200000000001000000000000000000000000000000000000000000000000000000000E000008000008093DC
:2B0A950002000000003E000000000000000000000000000000000000000000000000000000000078000018000088D00E
:2B0AC000000000000058000000000000000000000000000000000000000000000000000000000060400060000000FAB9
:2B0AEB0000000000001C0000000000000000000000000000000000000000000000000000000000F0000070020080BC26
:2B0B1600000000000000020000000000000000000000000000000000000000000000000000000000000000000080E54D
:2B0B4100020000000000000000000000000000000000000000000000000000000000000000000000000080400088AD92
:2B0B6C00020000000000000000000000000000000000000000000000000000000000000000000060000020400008E9AB
:2B0B97000400000000000000000000000000000000000000000000000000000000000000000000600000E0000010F2ED
:2B0BC200020000000000000000000000000000000000000000000020000000000000000000000000020000000008CD0F
:2B0BED00020006020000000000000000000000000000000000000028000000000000000000000098000018010008A44E
:2B0C1800020000010000000000000000000000000000000000000028000000000000000000000080000040000008823C
:2B0C4300000024000000000000000000000000000000000000000030000000000000000000000090000050020000F060
:2B0C6E00000000000000000000000000000000000000000000000028000000000000000000000000000080000080CD66
:2B0C9900000000000000000000000000000000000000000000000028000000000000000000000000040080000080C93B
:2B0CC4000200180000000000000000000000000000000000000000200000000000000000000000000000400000889271
:2B0CEF000000180000000000000000000000000000000000000000A04000000000000000000000600000E00200009E02
:2B0D1A000000000000000000000000000000000000000000000000800000000000000000000000E0000080000000814D
:2B0D45000000000000000000000000000000000000000000000000180000000000000000000000780000180000009843
:2B0D7000000000000000000000000000000000000000000000000000000000000000000000000060000060400080A731
:2B0D9B000200000000000000000000000000000000000000000000904000000000000000000000904000F00000889A79
:2B0DC600000000000000000000000000000000000000000000000000400000000000000000000060400060000080E75B
:2B0DF1000000000000000000000000000000000000000000000000800000000000000000000000E0000060000080E7B0
:2B0E1C00000000000000000000000000000000000000000000000000000000000000000000000060000060000080E784
:2B0E47000200000000000000000000000000000000000000000000600000000000000000000000600000600000088BCB
:2B0E72000000000000000000000000000000000000000000000000800000000000000000000000800000E00000888964
:2B0E9D00000000000000000000000000000000000000000000000008000000000000000000000098000018000090FEE4
:2B0EC800000000000000000000000000000000000000000000000008000000000000000000000000010060000088808E
:2B0EF3000000000000000000000000000000000000000000000000F04000000000000000000000900000F0400088FE5E
:2B0F1E00020000000000000000000000000000000000000000000068400000000000000000000000010060400088E4F1
:2B0F49000000000000000000000000000000000000000000000000E80000000000000000000000000000E0000000EFC6
:2B0F7400000000000000000000000000000000000000000000000060000000000000000000000000000060000080E72B
:2B0F9F00020000000000000000000000000000000000000000000000000000000000000000000060000060000028CF6E
:2B0FCA00100000000000000000000000000000000000000000000000000000000000000000000000000000000028DDE7
:2B0FF500000000000000000000000000000000000000000000000020000000000000000000000000000000000080C56C
:2B102000800008800008800008800008800008800008000000000008000220000220000220000220000220000200CDF4
:2B104B00800008800008800008800008800008800008000000000020000220000220000220000220000220000280E717
:2B107600000080000000080000000000000000000000000000000008020000000000000000000008000088200000C548
:2B10A100000000000000000000000100040000000000000000000000002000000000000000000000000400000080B4C7
:2B10CC00000000000000000000000000000000000000000000000000000002000000000000000000000000000080C7B0
:2B10F700000000000000000000000100040000000000000000000000000000000000000000000000000400000080B68F
:2B112200000080000000080000000000000000000000000000000008022002000000000000000008080088280000E747
:2B114D00000020000000000000000000000000000000000000000000080000000000000000000000080000080080CDF2
:2B117800000008000000080000000000000000080000000000000000000000000000000000000010000000000000FE26
:2B11A300000000000000000000000000000000000000000000000000200000000000000000000000200000200080C77A
:2B11CE00000004000000000000000000000000000000000000000000200000000000000000000000200000200080878B
:2B11F90018000000000000000000000000000000000000000000002000000000000000000000004000000000000891BA
:2B1224000000000000000000000000000000000000000000000000000000000000000000000000000000001000A0D51A
:2B124F00000000000000000000000000000000000000000000000000000000000000000000000000000000000080E70D
:2B127A00000000000000000000000000000000000000000000000000000000000000000000000000000000000080E7E2
:2B12A500000000000000000000000000000000000000000000000010000000000000000000000010000010000080F678
:2B12D000000000000000000000000000000000000000000000000000000000000000000000000000000000000008EFFC
:2B12FB00000000000000000000000000000000000000000000000000000000000000000000000000000000000080E761
:2B132600000000000000000000000000000000000000000000000000000000000000000000000000080010000080FE06
:2B135100180000000000000000000000000000000000000000000000000000000000000000000000000000000080FFDA
:2B137C00000000000000000000000000000000000000000000000000000000000000000000000000000000000080E7DF
:2B13A700000000000000000000000000000000000000000000000000000000000000000000000000000000000080E7B4
:2B13D200000000000000000000000000000000000000000000000000000000000000000000000000000000000080E789
:2B13FD00000000000000000000000000000000000000000000000000000000000000000000000000000000000080E75E
:2B142800000000000000000000000000000000000000000000000000000000000000000000000000000000000080E732
:2B145300000000000000000000000000000000000000000000000000000000000000000000000000000000000080E707
:2B147E00000000000000000000000000000000000000000000000000000000000000000000000000000000000080E7DC
:2B14A900000000000000000000000000000000000000000000000000000000000000000000000000000000000080E7B1
:2B14D4000000000000000000000000000000000000000000000000000000000000000000000000000000000000C0A38A
:2B14FF00000000000000000000000000000000000000000000000000000000000000000000000000000000000080E75B
:2B152A000000000000000000000000000000000000000000000000000000000000000000000000000000000000C0A333
:2B155500000000000000000000000000000000000000000000000000000000000000000000000000000000000080E704
:2B158000000000000000000000000000000000000000000000000000000000000000000000000000000000000080E7D9
:2B15AB00000000000000000000000000000000000000000000000000000000000000000000000000000000000080E7AE
:2B15D600000000000000000000000000000000000000000000000000000000000000000000000000000000000080E783
:2B160100000000000000000000000000000000000000000000000000000000000000000000000002000000000080C775
:2B162C00020000000000000000000000000000000000000000000000000000000000000000000000000000000008ED9C
:2B165700000000000000000000000000000000000000000000000000000000000000000000000000000000000008EF71
:2B168200000000000000000000000000000000000000000000000000000000000000000000000000000000000090F6B7
:2B16AD00000000000000000000000000000000000000000000000000000000000000000000000002000000000008CF39
:2B16D800000000000000000000000000000000000000000000000000000000000000000000000000000000000008EFF0
:2B170300020000000000000000000000000000000000000000000000000000000000000000000000000000000008EDC4
:2B172E00800008800008800008800008800008800008000000000020000220000220000220000220000220000280E72D
:2B175900800008800008800008800008800008800008000000000020000220000220000220000220000220000280E702
:2B178400000000000000000000000000000000000000000000000000000000000000000000000200000000000080C5F3
:2B17AF00020000000000000000000000000000000000000000000000000000000000000000800200000000000088C73C
:2B17DA00000000000000000000000000000000000000000000000000000000000000000000800200000000000000CD95
:2B180500000000000000000000000000000000000000000000000000000000000000000000000300000000000080D461
:2B183000000000000000000000000000000000000000000000000000000000000000000000800200000000000000CD3E
:2B185B00000000000000000000000000000000000000000000000000000000000000000000800200000000000000CD13
:2B188600020000000000000000000000000000000000000000000000000000000000000000000200000000000008CF5C
:2B18B1000000000000000000000000000000000000000000000000000000000000000000000002040000000000808501
:2B18DC00000000000000000000000000000000000000000000000000000000000000000000000000000000000080E77A
:2B190700000000000000000000000000000000000000000000000000000000000000000000000000000000000080E74E
:2B193200020000000000000000000000000000000000000000000000000000000000000000000000000000000008ED93
:2B195D00000000000000000000000000000000000000000000000000000000000000000000000000000000000080E7F8
:2B198800000000000000000000000000000000000000000000000000000000000000000000000000000000000080E7CD
:2B19B300000000000000000000000000000000000000000000000000000000000000000000000000000000000080E7A2
:2B19DE00000000000000000000000000000000000000000000000000000000000000000000000000000000000080E777
:2B1A0900020000000000000000000000000000000000000000000000000000000000000000000000000000000008EDBB
:2B1A3400000000000000000000000000000000000000000000000000000000000000000000000000000000000080E720
:2B1A5F00000000000000000000000000000000000000000000000000000000000000000000000000000000000080E7F5
:2B1A8A00000000000000000000000000000000000000000000000000000000000000000000000000000000000080E7CA
:2B1AB500020000000000000000000000000000000000000000000000000000000000000000000000000000000008ED0F
:2B1AE000000000000000000000000000000000000000000000000000000000000000000000000000000000000080E774
:2B1B0B00000000000000000000000000000000000000000000000000000000000000000000000000000000000080E748
:2B1B3600000000000000000000000000000000000000000000000000000000000000000000000000000000000080E71D
:2B1B6100000000000000000000000000000000000000000000000000000000000000000000000000000000000080E7F2
:2B1B8C00020000000000000000000000000000000000000000000000000000000000000000000000000000000008ED37
:2B1BB700000000000000000000000000000000000000000000000000000000000000000000000000000000000080E79C
:2B1BE200000000000000000000000000000000000000000000000000000000000000000000000000000000000080E771
:2B1C0D00000000000000000000000000000000000000000000000000000000000000000000000000000000000080E745
:2B1C3800020000000000000000000000000000000000000000000000000000000000000000000000000000000008ED8A
:2B1C6300000000000000000000000000000000000000000000000000000000000000000000000000000000000008EF5F
:2B1C8E00000000000000000000000000000000000000000000000000000000000000000000000000000000000090F6A5
:2B1CB900000000000000000000000000000000000000000000000000000000000000000000000000000000000008EF09
:2B1CE400000000000000000000000000000000000000000000000000000000000002000000000000000000000008CFFC
:2B1D0F00020000000000000000000000000000000000000000000000000000800900000000000000000000000008F422
:2B1D3A00000000000000000000000000000000000000000000000000000000800000000000000000000000000000EF0F
:2B1D6500000000000000000000000000000000000000000000000000000000000100000000000000000000000080F6DC
:2B1D90000000000000000000000000000000000000000000000000000000008006000000000000000000000000008919
:2B1DBB00020000000000000000000000000000000000000000000000000000800600000000000000000000000088836A
:2B1DE60000000000000000000000000000000000000000000000000000000000060000000000000000000000008081CB
:2B1E1100000000000000000000000000000000000000000000000000000000000600000000000000000000000080819F
:2B1E3C00000000000000000000000000000000000000000000000000000000000000000000000000000000000080E714
:2B1E6700000000000000000000000000000000000000000000000000000000000000000000000000000000000080E7E9
:2B1E9200020000000000000000000000000000000000000000000000000000000000000000000000000000000008ED2E
:2B1EBD00000000000000000000000000000000000000000000000000000000000000000000000000000000000080E793
:2B1EE800000000000000000000000000000000000000000000000000000000000000000000000000000000000080E768
:2B1F1300000000000000000000000000000000000000000000000000000000000000000000000000000000000080E73C
:2B1F3E00020000000000000000000000000000000000000000000000000000000000000000000000000000000008ED81
:2B1F6900000000000000000000000000000000000000000000000000000000000000000000000000000000000080E7E6
:2B1F9400000000000000000000000000000000000000000000000000000000000000000000000000000000000080E7BB
:2B1FBF00000000000000000000000000000000000000000000000000000000000000000000000000000000000080E790
:2B1FEA00000000000000000000000000000000000000000000000000000000000000000000000000000000000080E765
:2B201500020000000000000000000000000000000000000000000000000000000000000000000000000000000008EDA9
:2B204000000000000000000000000000000000000000000000000000000000000000000000000000000000000080E70E
:2B206B00000000000000000000000000000000000000000000000000000000000000000000000000000000000080E7E3
:2B209600000000000000000000000000000000000000000000000000000000000000000000000000000000000080E7B8
:2B20C100020000000000000000000000000000000000000000000000000000000000000000000000000000000008EDFD
:2B20EC00000000000000000000000000000000000000000000000000000000000000000000000000000000000080E762
:2B211700000000000000000000000000000000000000000000000000000000000000000000000000000000000080E736
:2B214200000000000000000000000000000000000000000000000000000000000000000000000000000000000080E70B
:2B216D00000000000000000000000000000000000000000000000000000000000000000000000000000000000080E7E0
:2B219800020000000000000000000000000000000000000000000000000000000000000000000000000000000008ED25
:2B21C300000000000000000000000000000000000000000000000000000000000000000000000000000000000080E78A
:2B21EE00000000000000000000000000000000000000000000000000000000000000000000000000000000000080E75F
:2B2219000000000000000000000000000000000000000000000000000000000000000000000000000000000000C0A337
:2B224400000000000000000000000000000000000000000000000000000000000200000000000200000000000080E704
:2B226F00000000000000000000000000000000000000000000000000000000000000000000000000000000000080E7DD
:2B229A00800008800008800008800008800008800008000000000020000220000020000220800020000220000200EFB2
:2B22C500800008800008800008800008800008800008000000000020000220000220000220000220000220000280E78B
:2B22F000000000000000000000000000000000000000000000000000000000000002000000000000000000000080C77A
:2B231B00000000000000000000000000000000000010000000000000000000000000000000000000000000000080F611
:2B234600000000000000000000000000000000000000000000000000000000000000000000000008000000000000EF75
:2B237100000000000000000000000000000000000010000000000000000000000000000000000000000000000080F6BB
:2B239C00000000000000000000000000000000000000000000000000000000000002000000000008000000000000CF3D
:2B23C700000000000000000000000000000000000000000000000000000000000000000000000000000000000080E784
:2B23F200000000000000000000000000000000000000000000000000000000000000000000000000000000000080E759
:2B241D00000000000000000000000000000000000000000000000000000000000000000000000004000000000080A769
:2B244800000000000000000000000000000000000000000000000000000000000000000000000000000000000080E702
:2B2473000000000000000000000000000000000000000000000000000000000000000000000000000000000000C0A3DB
:2B249E00000000000000000000000000000000000000000000000000000000000001000000000000000000000080F79B
:2B24C900000000000000000000000000000000000000000000000000000000000000000000000000000000000080E781
:2B24F400000000000000000000000000000000000000000000000000000000000000000000000000000000000080E756
:2B251F00000000000000000000000000000000000000000000000000000000000000000000000000000000000080E72A
:2B254A00000000000000000000000000000000000000000000000000000000000000000000000000000000000080E7FF
:2B257500000000000000000000000000000000000000000000000000000000000000000000000000000000000080E7D4
:2B25A000000000000000000000000000000000000000000000000000000000000000000000000000000000000080E7A9
:2B25CB000000000000000000000000000000000000000000000000000000000000000000000000000000000000C0A382
:2B25F600000000000000000000000000000000000000000000000000000000000000000000000000000000000080E753
:2B262100000000000000000008000000000000000000000000000000000000000000000000000000000000000088E717
:2B264C00000000000000020000000000000000000000000000000000000000000000004000000000000000000080E1C0
:2B267700000000000000000000000000000000000000000000000000000000000000000000000000000000000480A311
:2B26A2000000000000000400000000000000000000000000000000000000000000000000000000000020000000A0C386
:2B26CD00000000000010400000000000000000008000000000000000000000000000000000000000000010000180BEC3
:2B26F800400090000884000004000080000000400080000000000000000000000000000182000000000044000080C30D
:2B272300001000000040000500000000000040100000000000000000000000001000001000000000000000011080A392
:2B274E00800000000200800020800000040200000000000000000000000000000020000220000280000000000080C9AB
:2B277900000000000200000001000000000000000000000000000000000000000000000000000000000000000080D5DD
:2B27A400000000400000000080000000000000000000000000000000000000000000000000000000000000000000A7A3
:2B27CF00000000400000000000040000400000000000000000000000100000000000000000000000000000000080F3D8
:2B27FA00100000000000000000000000000000100000000000000000000000000000000000000000000080000000E72D
:2B282500000000000000000020000000000000000220000000000000080800000800000000000800000800000080CDD1
:2B285000000000000008000000000000000100000110000000000000000400000000000040000000000400000400FEF9
:2B287B000000240900000000000000000004082012A4100000000050841004448000000000002018004904010000AA37
:2B28A600000000800000000000000000000000000000000000000000040000000000000000000008000000010008EA88
:2B28D100020000000000000000000000000000000000000000000000000000000000000000000000000000000080E575
:2B28FC00020000000000000000000000000000000000000000000040000000000000000000000000000000000080A14E
:2B2927000200240900000000000000000004082012A410000000001080120444800000000000A010004904000080CBB2
:2B295200020021800000000009000008800020000000000000000020000000000800400020000200000080000800876D
:2B297D00000220000000010200000000000020000000000000000000000000000880004800000000000080000888EA20
:2B29A800000000000000000000800000000000800008000000000000000220000000000000000020000200000000EFC9
:2B29D300800008800008800008800008800008800008000000000020000220000220000220000220000220000280E776
:2B29FE00000010000000000010000000000000000110000000000000200080000000000000000040000400000000C7D2
:2B2A2900620A16000000600A16000000600400600116000000000008802918000000802900000058800500000008D876
:2B2A5400000012000000000212000000200000200112000000000068400000200000000004000048800400000088A31B
:2B2A7F00C00315000000C003140000004000004001140000000000F0004910000000000F00000050000500000010A289
:2B2AAA00800113000000800113000000A00100200112000000000068000060400000004600000048800400000008FCE7
:2B2AD500000012000000000012000000A00100200112000000000068000084000000000000000048800400000088F8A6
:2B2B0000820110040000800130000000800100000130000000000000004400000000000600000040080C00000008DE2C
:2B2B2B00800130000000800110000000C00100002110000000000010000E000000000006000000C00004000000008FD4
:2B2B5600000810000110000880000000000000000110000000000040002080000000002000000000000400000080F618
:2B2B8100600016600116600006000000000000600116000000000058800D78000000800100000098900500802100DFD4
:2B2BAC00022012200112000000000000000000200112000000000048000000200000000800000000900400002088ECCC
:2B2BD700C00114400114C0113C010000000000400114000000000050001510000000000700000070000500000700FF4F
:2B2C0200800112200112800118020000000000200112000000000048000000400000000600000060800400000604ABEC
:2B2C2D00004012200112002220000000000000200112000000000048002480000000008800000080A00400000000BE2C
:2B2C5800800110014110840118000000000000000110040000000040000604000000000600000060000404000600EA14
:2B2C8300820134000334800118000000000000000131000000000040400C0000000000060000006000040000060897D2
:2B2CAE00000010008000000000010000000010004010000000000000000400000400000000080000000400010480F27F
:2B2CD9006008166000866008260000006006166002160000000000988105F8840500802118000098840518800580F55F
:2B2D0400000012000000088000000000000412000812000000000008800480800400000009000040800400800480C6B3
:2B2D2F00C02114C0213CC0011C010000C00314C0031400000000001000051000050000071000001040057002058886C0
:2B2D5A00824112802118810138000000802112800312000000000068800400800400000668000000840460C004888428
:2B2D850002001200020000802000000000001200021200000000006880040082040000006A000080800400800410CD06
:2B2DB000820110840118800118000000800130800110000000000060000C000004000006600000004044600044088364
:2B2DDB00820134800118800118000000800114800110010000000070000460008500000670000080000460000508A855
:2B2E06000000100000400000100000000001400001100000000000E0000020000000000000000000000440001088BB58
:2B2E3100600416600606600416000000600106600116000000000018804918C01100801100000018820558800180CF16
:2B2E5C00000412200000080412000000200100300112000000000000200040040002001000000020C00448000080CDA4
:2B2E8700C0011440001CC0011400000040011C4001140000000000100001940007000007000000B0000550004780E702
:2B2EB200800112A00118802112000000200118200112000000000000404000200600008600000000810448000688EE15
:2B2EDD00028012A001200200120000002001202201120000000000800008200088000000000000C080044800888083A4
:2B2F08008201108101188001100000000001180001100000000000000006004006000006000000200004400006008E6C
:2B2F3300820130C001188001100200000083180083101000000000000000C0000600000600000060010C52400600A99C
:2B2F5E0002011000010000010004000000020000011000000000000000008000004000040000000001040000000086CD
:2B2F8900600116600146600126000000600246600116000000000018844F188021588005000000588005188111888B3E
:2B2FB400200112200100210100000000000000200112000000000000004000202048800400000000810400000002ADC9
:2B2FDF0040011440013C40011C100000C0811C500114000000000070200F700007500005000000D00005F0200F80CD1A
:2B300A00200112200118200118020000802118200112000000000060000000404648800400000000820460000600ED7D
:2B30350020011220010028012000000000020028011200000000000001108000004880040000004080048008008ACF94
:2B306000020110000118001118000000800118001110010000000060000000000640008400000040000460000608E475
:2B308B00421130081118400118000000800118000130000000000060000600000650400D000000400104640006109BE0
:2B30B600028010000000100000000010000400020110000000000080000680001000000002000004000400100008E00E
:2B30E1006202166082066012A6000016600026600116000000000018804F18800998A009008009F884059880090AFB3E
:2B310C00000412000240000480000012000000200112000000000060204600200000011000800060800400000088AFE5
:2B313700C00314C0033CC0033C000014C0097C400114000000000010000F10000FF4000F000001704005F0011F80C99A
:2B316200804112802118824118020012802118220112000000000000400600400660000601800660840460008600A4EE
:2B318D000002120002000002000000120000002001120000000000800006800000022008008006E0800400200080C739
:2B31B800820110800118800118000010840118000110010000000000000060000660000600000660004460000688B153
:2B31E300800134880118800118000030800118001110000000000000000000000660000600000760000C60000680849F
:2B320E00000110000810000140000200010100000110000000000080000480000041000440000460000400020000E53E
:2B323900600116600016600106600226600186600116000000000018800518800158800558800598840518802900F06E
:2B326400200112000012200100000000200180200112000000000000A00400200048800448800400800400080000DE3F
:2B328F00420114C00B1440019CC0075C40011C400114000000000010000510001F50000550000510400570000709D297
:2B32BA00200112802112200118820118200118210112000000000000C004004086488004488004008404E0000E00A486
:2B32E5002001120000122001000080002801002001120000000000808004E0000048800448800480800400000000B04C
:2B331000000110800110041118800118001118000310000000000000004400000640008440040400000460000600A787
:2B333B00021110810130000118800118000118000130080000000060000400000640400C40008400004460000608A181
:2B336600020810000080000800000100018010000110000000000000010480000400002000080004000440000408FAF8
:2B339100640216600406600246600126600216600116000000000018800508800518810918800998820558800510B5DF
:2B33BC00021012000400000002200102000013200112000000000000800408A00400010000011000820448800408EEC9
:2B33E700C20114C001BCC00105400104C003144001140000000000F00205700005700087F0000FF0000550000508DD9F
:2B34120082031280213880031A20011A802112200112000000000060800468C00460080E600006608804488004088530
:2B343D0000021200002000001A20011A0002122001120000000000008204E8800400000800200002800448800480D4D4
:2B346800800110800118800118000318800130001110000000000060000460000460000660000660000440004400C845
:2B34930092011481011880011C00011C80011000031002000000006000840000846000066000066000844040048898B1
:2B34BE0008100001020010100000100008020010000010000000000000202000000404400004400000000104000CCBC6
:2B34E900000200000020000220080220000020000221000000000080200800000880000880000800020800000800FF36
:2B351400000000000000000000000000000000000000000000000008000008000000000000000000000000000080E715
:2B353F00800008800008800008800008800008800008000000000020000220000220000220000220000220000280E7FE
:2B356A002000A2080252200042010240000020540AA510000000000885081044C00C800010002148C1204201A080F955
:2B359500000000000000000000000000000000000000000000000000000000000000000000000000000000000080E7A4
:2B35C000000000000000000000000400100000000000000000000000000001000000000000000000000800000000A320
:2B35EB00000000000000000000000000000000000040000000000000008000000000000000000000044000040080AF7E
:2B3616002000A2080242200042010648100020500AE510000000000885081044400C800010002128C56802052080D297
:2B364100000110000100000004400000000004400114000000000000000100000000000800000000020500000000F0AF
:2B366C000000080000000000000000004000008000080000000000000000020000000010000000002102000200008F9D
:2B369700000000000000000000100000000000000000000000000000000000000000000000000000000000000081E790
:2B36C200000201000010000001000000000010000000000000000000200000204400000400000000000000400084C1AC
:2B36ED000280000040000000100000000000000000000000000000000000000000021000000000000000000000A0EA44
:2B371800000000002000000000000008000040000000000000000000000000008000000001000000000000000000B1EC
:2B374300020000000000822000000000000000020000000000000000000004408000008000000000400000088000AFFA
:2B376E00001004000000100000000000004004000800000000000000000000000100000000000002000010000100C3E9
:2B379900000000000000000000002000020000000001100000000010400230000000480000088020100004400080DDAF
:2B37C400000800000400000840400000000400000000080000000000080000080000002000000000040000000080ED99
:2B37EF00000200000000000000000000002000000000000000000040000000000000000100000000000000100080823A
:2B381A0000010000000040200800000000800000000000000000000000022000000000000000002000000000000186D1
:2B3845000020000400000000000000000040000040000400000000000000000000000002000000000000010040A0F1DC
:2B38700000C00000002008830000000000002008000000000000000000000000088220080000000000000000080AF8DE
:2B389B00000000000000000000000000000000000000000000000000000000000000000000000000000000000080E79B
:2B38C600000000800100000000000000000000000000000000000020010000000000000000000000000000000000DD58
:2B38F100000000000000000000000000000000000000000000000000000000000000000000000000000000000080E745
:2B391C00000000000000000000000000000000000000000000000000000000000000000000000000000000000080E719
:2B394700401004E1100441100441100441100441100401000000003804411004411004411004411004A110044180EBC6
:2B39720060188661198661188661188661188661188601000000005886611886611886611886611886C11D866180E828
:02399D00FFFF2A
:00000001FF
