:020000040000FA
:2B000000FFFF62FF2500FFFFFFFFFFFFFFFFFFFFFFFFFFFFFFFFFFFFFFFFFFFFFFFFFFFFFFFFFFFFFFFFFFFFFFFFFF76
:2B002B00601886611886611886611886611886611886010000000018866118866119866118866118866118866180F73E
:2B00560040100441100441100441100441100441100401000000001004411004E110044110044110044110044180ED76
:2B008100000000000000000000000000000000000000000000000000000000000000000000000000000000000080E7ED
:2B00AC00000000000000000000000000000000000000000000000000000000000000000000000000000000000080E7C2
:2B00D700000000000000000000000000000000000000000000000000000000008001000000000000000000000080FFFE
:2B010200000000000000000000000000000000000000000000000000000000002000000000000000000000000080E54D
:2B012D00000000000000000000000000000000000000000000000000000000000000000000000000000000000080E740
:2B015800000000000000000000000000000000000000000000000000000000000000000000000000000000000080E715
:2B018300000000000000000000000000000000000000000000000000000000000000000000000000000000000080E7EA
:2B01AE000000000000000000000000000000000000000000000000000000000000000000000000000000000000A0C5C1
:2B01D900000000000000000000000000000000000000000000000000000000000000000000000000000000000080E794
:2B020400000000000000000000000000000000000000000000000000000000000000000000000000000000000080E768
:2B022F00000000000000000000000000000000000000000000000000000000000000000000000000000000000080E73D
:2B025A00000000000000000000000000000000000000000000000000000000000000000000000000000000000080E712
:2B028500000000000000000000000000000000000000000000000000000000000000000000000000000000000080E7E7
:2B02B000000000000000000000000000000000000000000000000000000000000000000000000000000000000080E7BC
:2B02DB00000000000000000000000000000000000000000000000000000000000000000000000000000000000080E791
:2B030600000000000000000000000000000000000000000000000000000000000000000000000000000000000080E765
:2B033100000000000000000000000000000000000000000000000000000000000000000000000000000000000080E73A
:2B035C00000000000200000000000000000000000000000000000000000000000000000000000000000080000000C52F
:2B038700000000000000000000000000000000000000000000000000000000000000000000002000000000000080E5C6
:2B03B200020000000000000000000000000000000000000000000000000000000000000000000000000000000008ED29
:2B03DD00000000000000000000000000000000000000000000000000000000000000000000000000000000000080E78E
:2B040800000000000000000000000000000000000000000000000000000000000000000000000000000000000080E762
:2B04330000000000000000000000000000000000000000000000000000000000000000000000A000000000000080ED91
:2B045E00000000000000000000000000000000000000000000000000000000000000000000000000000000000080E70C
:2B048900020000000000000000000000000000000000000000000000000000000000000000000000000000000008ED51
:2B04B400800008800008800008800008800008800008000000000020000220000220000220000220000220000280E7BA
:2B04DF00800008800008800008800008800008800008000000000020000220000220000220000220000220000280E78F
:2B050A00000000000000000000000000000000000000000000000000000000000000000000000000000000000080E75F
:2B053500020000000000000000000000000000000000000000000000000000000000000000000000000000000008EDA4
:2B056000000000000000000000000000000000000000000000000000000000000000000000000000000000000008EF79
:2B058B00000000000000000000000000000000000000000000000000000000000000000000000000000000000090F6BF
:2B05B600000000000000000000000000000000000000000000000000000000000000000000000000000000000008EF23
:2B05E100000000000000000000000000000000000000000000000000000000000000000000000000000000000008EFF8
:2B060C00020000000000000000000000000000000000000000000000000000000000000000000000000000000008EDCC
:2B063700000000000000000000000000000000000000000000000000000000000000000000000000000000000080E731
:2B066200000000000000000000000000000000000000000000000000000000000000000000000000000000000080E706
:2B068D00000000000000000000000000000000000000000000000000000000000000000000000000000000000080E7DB
:2B06B800020000000000000000000000000000000000000000000000000000000000000000000000000000000008ED20
:2B06E300000000000000000000000000000000000000000000000000000000000000000000000000000000000080E785
:2B070E00000000000000000000000000000000000000000000000000000000000000000000000000000000000080E759
:2B073900000000000000000000000000000000000000000000000000000000000000000000000000000000000080E72E
:2B076400000000000000000000000000000000000000000000000000000000000000000000000000000000000080E703
:2B078F00020000000000000000000000000000000000000000000000000000000000000000000000000000000008ED48
:2B07BA00000000000000000000000000000000000000000000000000000000000000000080000000000000000000E7AD
:2B07E500000000000000000000000000000000000000000000000000000000000000000018000000000000000000FED3
:2B081000000000000000000000000000000000000000000000000000000000000000000008000000000000000000EFC6
:2B083B00020000000000000000000000000000000000000000000000000000000000000010000000000000000008FC7C
:2B0866000000000000000000000000000000000000000000000000000000000000000000680000000000000000008976
:2B089100000000000000000000000000000000000000000000000000000000000000000068000000000000000000894B
:2B08BC0000000000000000000000000000000000000000000000000000000000000000006000000000000000008081B0
:2B08E7000000000000000000000000000000000000000000000000000000000000000000600000000000000000808185
:2B091200020000000000000000000000000000000000000000000000000000000000000000000000000000000008EDC3
:2B093D00000000000000000000000000000000000000000000000000000000000000000000000000000000000080E728
:2B096800000000000000000000000000000000000000000000000000000000000000000000000000000000000080E7FD
:2B099300000000000000000000000000000000000000000000000000000000000000000000000000000000000080E7D2
:2B09BE00020000000000000000000000000000000000000000000000000000000000000000000000000000000008ED17
:2B09E900020000000000000000000000000000000000000000000000000000000000000000000000000000000080E57C
:2B0A1400040000000000000000000000000000000000000000000000000000000000000000000000000000000080E350
:2B0A3F00020000000000000000000000000000000000000000000000000000000000000000000000000000000080E525
:2B0A6A00020000000000000000000000000000100000000000000000000000000000000000000000000000000080F5DA
:2B0A9500020000000000000000000000000026000000000000000000000000000000000000000000000000000008AF57
:2B0AC000000000000000000000000000000000000000000000000000000000000000000000000000000000000080E7A4
:2B0AEB00000000000000000000000000000004010000000000000000000000000000000000000000000000000080A6B5
:2B0B1600000000000000000000000000000000000000000000000000000000000000000000000000000000000080E74D
:2B0B4100020000000000000000000000000000000000000000000000000000000000000000000000000000000008ED92
:2B0B6C00020000000000000000000000000018000000000000000000000000000000000000000000000000000088F4C8
:2B0B9700040000000000000000000000000018000000000000000000000000000000000000000000000000000010EB1C
:2B0BC200020000000000000000000000000000000000000000000000000000000000000000000000000000000008ED11
:2B0BED00020000000000000000000000000000000000000000000000000000000000000000000000000000000008EDE6
:2B0C1800020000000000000000000000000000000000000000000000000000000000000000000000000000000008EDBA
:2B0C4300000000000000000000000000000000000000000000000000000000000000000000000000000000000080E71F
:2B0C6E00000000000000000000000000000000000000000000000000000000000000000000000000000000000080E7F4
:2B0C9900000000000000000000000000000000000000000000000000000000000000000000000000000000000080E7C9
:2B0CC400020000000000000000000000000000000000000000000000000000000000000000000000000000000008ED0E
:2B0CEF00000000000000000000000000000000000000000000000000000000000000000000000000000000000080E773
:2B0D1A00000000000400000000000000000000000000000000000000000000000000000000000000000000010080A287
:2B0D45000000006002000000000000000000000000000000000000000000000000000000000000000000F8000080DACF
:2B0D7000000000802100000000000000000000000000000000000000000000000000000000000000000000080000F4BB
:2B0D9B00020000400000000000000000000000000000000000000000000000000000000000000000000070000008DA99
:2B0DC600000000800101000000000000000000000000000000000000000000000000000000000000000060400000C818
:2B0DF1000000000002000000000000000000000000000000000000000000000000000000000000000000E0000000A352
:2B0E1C00000000800100000000000000000000000000000000000000000000000000000000000000000000000000FE2C
:2B0E47000200000000000000000000000000000000000000000000000000000000000000000000000000600000088B8B
:2B0E7200020000000000000000000000000000100000000000000000000000000000000000000000000000000008FD3E
:2B0E9D00040000000000000000000000000026000000000000000000000000000000000000000000000000000090B0C0
:2B0EC800020000000000000000000000000000000000000000000000000000000000000000000000000000000008ED08
:2B0EF3000200000000000000000000000000241000000000000000000000000000000000000000000000000000089FF7
:2B0F1E00020000000000000000000000000000000000000000000000000000000000000000000000000000000008EDB1
:2B0F4900000000000000000000000000000000000000000000000000000000000000000000000000000000000080E716
:2B0F7400000000000000000000000000000018000000000000000000000000000000000000000000000000000000FE3C
:2B0F9F00000000000000000000000000000018000000000000000000000000000000000000000000000000000000FE11
:2B0FCA000800000000000000000000000000000000000000000000000000000000000000200000000000000000A0EF45
:2B0FF500000000000000000000000000000000000000000000000000000000000000000000000000000000000080E76A
:2B102000800008800008800008800008800008800008000000000020000220000220000200000220000220000280C584
:2B104B00800008800008800008800008800008800008000000000020000220000220000220000220000220000280E717
:2B10760000000000008002000000000000000208000000000000000000000000000000000000000000000000A000C75C
:2B10A100000000000000000000000000000000000000000000000000000000000000000000000000000000000080E7BD
:2B10CC00000000000000000000000000000000000000000000000000000000000000000000000000000100000080F682
:2B10F700000000000000000000000000000000000000000000000000000000002000000000000000800000000000ED41
:2B112200000000000080000000000000000002080000000000000000000000002000000000000000800100002080D601
:2B114D00000000000000000000000000000010000000000000000000000000000000000000000000000000000080F6F1
:2B117800000000008000000000000000000000000000000000000000000000000000000000000000000000200080CF5D
:2B11A300000000000000000000000000000000080000000000000000000000000000000000000000000000000080EFAA
:2B11CE00000000000000000000000000000000080000000000000000000000000000000000000000000000000080EF7F
:2B11F9001000000000000000000000000000000000000000000000000000000000000000000000000000000000A0D546
:2B122400000000000000000000000000000000000000000000000000000000000000000000000000000000000080E738
:2B124F00000000000000000000000000000000000000000000000000000000000000000000000000000000000080E70D
:2B127A00000000000000000000000000000000000000000000000000000000000000000000000000000000000080E7E2
:2B12A500020000000000000000000000000000000000000000000000000000000000000000000000000000000008ED27
:2B12D0000000000000000000000000000000000000000000000000000000000000000000000000000000000000A0C58E
:2B12FB00000000000000000000000000000000000000000000000000000000000000000010000000000000000080F642
:2B132600080000000000000000000000000000000000000000000000000000000000000000000000000000000080EF25
:2B135100100000000000000000000000000000000000000000000000000000000000000000000000000000000080F7EA
:2B137C00000000000000000000000000000000000000000000000000000000000000000000000000000000000080E7DF
:2B13A700000000000000000000000000000000000000000000000000020800000000000010000000001000000001E50B
:2B13D200020000000000000000000000000000000000000000000000010000000000000000000000000000001080E578
:2B13FD00000000000000000000000000000000000000000000000000001000000002000000003200000000000480A35A
:2B142800000000000000000000000000000000000000000000000080002000000000010000000000000000000040A018
:2B145300000000000000000000000000000000000000000000000000000000000400080000000000080000000080A337
:2B147E00000000000000000000000000000000000000000000000000000000000000000000000000000000000080E7DC
:2B14A900000000000000000000000000000000000000000000000000000000000000000000000000000000000080E7B1
:2B14D400000000000000000000000000000000000000000000000000000000000000000000400000000000000080A786
:2B14FF0000000000000000000000000000000000000000000000000000020000010000008000000000000400000094A7
:2B152A000200000000000000000000000000000000000000000000000000000001000000A0010400000000000000935B
:2B155500080000000000000000000000000000000000000000000000000000000000000020000000000000002080CFD4
:2B1580000000000000000000000000000000000000000000000000000000000000000000000000010000000000C0B3CC
:2B15AB00000000000000100000000000000000000000000000000000000000000800000000020000000000000000F506
:2B15D6000002200002000002200002200002200002200000000000100200800004000808000000000008800001808B04
:2B16010000000000000200040001000000000000000000000000008822001000908AA2001045088AC22810402800D523
:2B162C00020000000000000000000000000000000000000000000000000000000000000000000000000000000008ED9C
:2B165700000000000000000000000000000000000000000000000000000000000000000000000000000001000008FF60
:2B168200000000000000000000000000000000000000000000000000000000000000000000000000000000000090F6B7
:2B16AD0000000000000200040003000000000000000000000000008822003000108AA2001045088AC22830502888C72B
:2B16D80000000000000000000000000000000000000000000000000000000000020000000000000008020000000AC70A
:2B170300020000000000000000000000000000000000000000000000408800000080100000008800000000000088BD94
:2B172E00800008800008800008800008800008800008000000000000000020000000000220000000000020000080E797
:2B175900800008800008800008800008800008800008000000000020000220000220000220000220000220000280E702
:2B178400000000000000000000000000000000000000000000000000000000000000000080000800400000008080AFC3
:2B17AF00000000000000000000000000000000000000000000000018900104802198080098800198802900800188AE10
:2B17DA000200000000000000000000000000000000000000000000688016008000682000E8800668C00000800680EA56
:2B180500020000000000000000000000000000000000000000000070010700000170000070000F71000100001F8082BB
:2B183000020000000000000000000000000000000000000000000008882000800608000008801008800600800000E6C1
:2B185B00020000000000000000000000000000000000000000000068800E008006E80200E89006688206008086809373
:2B188600000000000000000000000000000000000000000000000000000000000600000000000000000600000008EF34
:2B18B100000000000000000000000000000000000000000000000060000600000770000060000770000700000680903B
:2B18DC00000000000000000000000000000000000000000000000000400000001000080080000000400000008000E663
:2B19070000000000000000000000000000000000000000000000009880010480011800009880019C8027008001809A08
:2B1932000200000000000000000000000000000000000000000000688006008000680200689006688000008026009B89
:2B195D000000000000000000000000000000000000000000000000F0101F000001F0000070001F702007040007088E88
:2B19880000000000000000000000000000000000000000000000000881000080060800000880000881000080808889FB
:2B19B300000000000000000000000000000000000000000000000068802E008006682000E8882E68804000800E88CB3E
:2B19DE00000000000000000000000000000000000000000000000000000000000600000000000000000600000008EFDB
:2B1A090002000000000000000000000000000000000000000000007000060000076000006000067000060000068092DF
:2B1A3400000000000000002000000000000000000000000000000000000000000000080080000800000000000080ED6A
:2B1A5F00000000000000600000000000000000000000000000000018900104800F1C00009880011890270080498098DB
:2B1A8A0000000000000080010100000000000000000000000000006881160080086800006880066880000080060190D3
:2B1AB500020000000000C003000000000000000000000000000000F0000F000007F0010070084FF0018700000F88E58F
:2B1AE000020000000000800100000000000000000000000000000008902000800009000008800008A00800800000D689
:2B1B0B000400000000008001000000000000000000000000000000E88006008008E8040068C01668800000802E80D321
:2B1B3600020000000000800100000000000000000000000000000000000000000600000000000000000600000000FCF9
:2B1B61000200000000008001000000000000000000000000000000600006000006600000600007600006000007009A9C
:2B1B8C00020000000000000000000000000000000000000000000000000000000000008080000000008000008088E5BF
:2B1BB700000000000006100000000000000000000000000000000018900104800F9C88019880011C900100800100B98C
:2B1BE20000000000000200000000000000000000000000000000006880060080006C08066C841668020600801680AFB3
:2B1C0D000000000000040000000000000000000000000000000000F00117000007F0000FF0000FF0002100000F00C3B8
:2B1C380002000000001A0000000000000000000000000000000000088400008000080106088800880006048000809197
:2B1C630000000000001A0000000000000000000000000000000000E88026008040E80006E88026E8000E00800E8A94D0
:2B1C8E0000000000001800000000000000000000000000000000000000000000060000060000000000060000008890E9
:2B1CB900000000000018000000000000000000000000000000000060000600000670000660000660000600000688E7C5
:2B1CE400000000000000000000000000020000000000000000000000000800000000000080000000008000008008ED56
:2B1D0F00020000000000000000000006000000000000000000000018900100800F9C08009880011C900100800180F20C
:2B1D3A000000000000000000000000181000000000000000000000688006008008E8000068C02668000604800600ECC6
:2B1D650000000000000000000000003C0000000000000000000000F0024F00000F700000F0000FF0020F00001780EED2
:2B1D9000000000000000000000000018000000000000000000000008802000800008000008801008200600800880BB57
:2B1DBB000000000000000000000000180000000000000000000000E8C00E008080680100689006E8000600800E88AF15
:2B1DE600020000000000000000000018000000000000000000000000000000000600000000000000000600000000FCB0
:2B1E11000200000000000000000000180000000000000000000000600007000006700000600006600006000006009A43
:2B1E3C00020000000000000000000000000000000000000000000000400800080000080080000000400000080080EDEC
:2B1E6700020000000000000000000000000000000000000000000098800118800F1C00009880019C802718804980FABB
:2B1E92000000000000000000000000000000000000000000000000E880066180006A010068802668800060800608B2D5
:2B1EBD000000000000000000000000000000000000000000000000F0000F10010F700000F00407F0204F1001078290E7
:2B1EE800000000000000000000000000000000000000000000000008820060C04008000008800008810060C01000E9B3
:2B1F13000000000000000000000000000000000000000000000000E88026E08000E82000E8A016E88088E080068082B7
:2B1F3E00020000000000000000000000000000000000000000000000000060000600000000000000000660000008EDB5
:2B1F6900000000000000000000000000000000000000000000000070000760000660000060000670000660000708893C
:2B1F9400000000020000000000022000002000000000000000000000400800000000080080000800002000000010BC1A
:2B1FBF00000006000000000006600000600000000000000000000098800100800F1C000098800118900100804988C490
:2B1FEA0000001810000000001890050080010100000000000000006888060480006800006888466880000080068891D6
:2B20150002003C00000000003C400200C003000000000000000000F0000F00000F71020070000770010100000F89E639
:2B204000000018000000000018800101800100000000000000000008822000800088000008C00008800600800080D961
:2B206B000000180000000000188003008001000000000000000000688006008000EC0000688026E8C00600802600CD8D
:2B209600000018000000000018800100800100000000000000000000000000000600000000000000000600000080E77A
:2B20C1000000180000000000188001008001000000000000000000700007000006600000600007600007000007089870
:2B20EC00022000002000000000000000000000022000020000000000400800001000000080000800400000000088EECD
:2B2117006200006000000000000000000000066000060000000000988001008009980800988001988011008049108092
:2B214200820100800100000000000000000018800119000000000068A04600800068000068800669800000800608BE63
:2B216D00420600400600000000000000000064C00364000000000070000F000001704000F0400F70400100004708A51A
:2B219800800101800101000000000000000018900118100000000008800000800608020008840008820600802008F873
:2B21C300800300800300000000000000000038800138000000000068822E00800668000068802E68800600800E0092D0
:2B21EE00800100800100000000000000000018800118000000000000000000000600000000000000000600000000FE09
:2B221900800100800100000000000000000018800118000000000070000700000770000060000770000700000710897B
:2B2244000A0000000008000000000000000000000000000000000000000000000000040000000002001000004000C443
:2B226F00000000000000000000000000000000000000000000000080088000000882000000200880080000000880EF8B
:2B229A00800008800000800008800008800008800008000000000000000020000000000200000000000020000000CDE2
:2B22C500800008800008800008800008800008800008000000000020000220000220000220000220000220000280E78B
:2B22F000400500400000000040000000130404000054000000000088A2280282481422A0104511882430F20440029F82
:2B231B00000000000000000000000000000000000000000000000000000000000000000000000000000000000080E730
:2B234600000000000000000000000000000000000000000000000000000000000000000000000000000000000080E705
:2B237100000000000000000000000000000000000000000000000000000000000000000000000000000000000080E7DA
:2B239C00400400400000000040000000110404000044000000000088A2280282C814222010451188243292044002D90C
:2B23C700000000000000000000000000000000000000000000000000000000000000000000000000000D00000000B22C
:2B23F200008000088000008000088000088000088000080000000000000000200000000002000000000002200080EFE5
:2B241D00000000000000000000000000000000000000000000000000240004002000110000000004140000000280E6BB
:2B244800000000000000000000000000000000000000000000000000000000000020000010000000000000000280F6C1
:2B247300000000000000000000000000000000000000000000000000000000000000000000550000200200000090A196
:2B249E00000000000000000000000000000000000000000000000000000202000084000000000000000000000880A55E
:2B24C900000000000000000000000000000000000000000000000000410000000000000000000000010000000080A77F
:2B24F400000000000000000000000000000000000000000000000020000000000000000040000080000000002010921B
:2B251F0000000000000000000000000000000000000000000000000000010000002402000008010000000000000887D2
:2B254A00000000000000000000000000000000000000000000000000000000000001000000000000400000008080BF66
:2B25750000000000000000000000000000000000000000000000000000000000001140000020000000000000008086C4
:2B25A000000000000000000000000000000000000000000000000000000000000000000000242010180000000080C85C
:2B25CB00000000000000000000000000000000000000000000000000000000000000000000000000400000008800AF6E
:2B25F600000000000000000000000000000000000000000000000000280000002010000000000000200000000080FCC6
:2B2621001000000000000000000000000000000000000000000000000000000000000000000000000000000000A0D509
:2B264C00020000000000000000000000000000000000000000000000000000000000000000000000000000000080E5FC
:2B267700000000000000000000000000000000000000000000000000000000000000000000000000000000000080E7D1
:2B26A200000000000000000000000000000000000000000000000000000000000000000000000000000000000080E7A6
:2B26CD00000000000000000000000000000000000000000000000000000000000000000000000000000000000080E77B
:2B26F800000000000000000000000000000000000000000000000000000000000000000000000000000000000080E750
:2B272300000000000000000000000000000000000000000000000000000000000000000000000000000000000080E724
:2B274E00000000000000000000000000000000000000000000000000000000000000000000000000000000000080E7F9
:2B277900000000000000000000000000000000000000000000000000000000000000000000000000000000000080E7CE
:2B27A400020000000000000000000000000000000000000000000000000000000000000000000000000000000080E5A3
:2B27CF00000000000000000000000000000000000000000000000000000000000000000000000000000000000080E778
:2B27FA00000000000000000000000000000000000000000000000000000000000000000000000000000000000080E74D
:2B282500000000000000000000000000000000000000000000000000000000000000000000000000000000000080E721
:2B285000000000000000000000000000000000000000000000000000000000000000000000000000000000000080E7F6
:2B287B00000000000000000000008000000002000000000000000000000000000000000000000000002000000080CD43
:2B28A600020000000000000000000000000000000000000000000000000000000000000000000000000000000008ED10
:2B28D100020000000000000000000000000000000000000000000000000000000000000000000000000000000080E575
:2B28FC00040000000000000000000000000000000000000000000000000000000000000000000000000000000080E34A
:2B29270002000000000000000000800000000A00000000000000000000000000000000000000000000A000000000CF8A
:2B295200020000000000000000000000000000000000000000000000000000000000000000000000000000000080E5F3
:2B297D00020000000000000000000000000000000000000000000000000000000000000000000020000000000008CF36
:2B29A800800008800008800008800008800008800008000000000020000220000220000220000200000220000280C5E3
:2B29D300800008800008800008800008800008800008000000000020000220000220000220000220000220000280E776
:2B29FE00000000000000000000000000800000000000000000000000000000000000000000000000000000000000EF3F
:2B2A2900020000000000000000208200A00000000000000000000000000000000000000000000000000000000088CFE7
:2B2A5400000000000000000000A00300A00000000000000000000000000000000000000000000000000000000008DC30
:2B2A7F00000000000000000000C00300C00000000000000000000000000000000000000000000000000000000090C554
:2B2AAA00000000000000000000A00100A00000000000000000000000000000000000000000000000000000000008FEBA
:2B2AD500000000000000000000A00100A00000000000000000000000000000000000000000000000000000000008FE8F
:2B2B0000020000000000000000000000801000000000000000000000000000000000000000000000000000000088E4AC
:2B2B2B00000000000000000000000000800200000000000000000000000000000000000000000000000000000000CD30
:2B2B5600000000000000000000000000000000000000000000000000000000000000000000000000000000000080E7ED
:2B2B8100000000000000000000000000000000000000000000000000000000000000000000000000000000000080E7C2
:2B2BAC00020000000000000000000000000000000000000000000000000000000000000000000000000000000008ED07
:2B2BD700000000000000000000000000000000000000000000000000000000000000000000000000000000000080E76C
:2B2C0200000000000000000000000000000000000000000000000000000000000000000000000000000000000080E740
:2B2C2D00000000000000000000000000000000000000000000000000000000000000000000000000000000000080E715
:2B2C5800000000000000000000000000000000000000000000000000000000000000000000000000000000000080E7EA
:2B2C8300020000000000000000000000000000000000000000000000000000000000000000000000000000000008ED2F
:2B2CAE00000000000000000000000000000000000000000000000000000000000000000000000000000000000080E794
:2B2CD900000000000000000000000000000000000000000000000000000000000000000000000008080000000000E7D9
:2B2D04000000000000000000000000000000000000000000000000000000000000000000000000680400000000008DAB
:2B2D2F000200000000000000000000000000000000000000000000000000000000000000000000F00000000000889A65
:2B2D5A000200000000000000000000000000000000000000000000000000000000000000000000680000000000008B59
:2B2D85000400000000000000000000000000000000000000000000000000000000000000000000680000000000008D2A
:2B2DB000020000000000000000000000000000000000000000000000000000000000000000000000000000000080E591
:2B2DDB00020000000000000000000000000000000000000000000000000000000000000000000010000000000080F447
:2B2E0600020000000000000000000000000000000000000000000000000000000000000000000000000000000008EDAA
:2B2E3100000000000000000000000000000000000000000000000000000000000000000000000000000000000080E70F
:2B2E5C00000000000000000000000000000000000000000000000000000000000000000000000000000000000080E7E4
:2B2E8700000000000000000000000000000000000000000000000000000000000000000000000000000000000080E7B9
:2B2EB200020000000000000000000000000000000000000000000000000000000000000000000000000000000008EDFE
:2B2EDD00020000000000000000000000000000000000000000000000000000000000000000000000000000000080E563
:2B2F0800040000000000000000000000000000000000000000000000000000000000000000000000000000000080E337
:2B2F3300020000000000000000000000000000000000000000000000000000000000000000000000000000000080E50C
:2B2F5E00020000000000000000800000000000000000000000000000000000000000000000000000000000000000EDD9
:2B2F8900020000000000000000A00000000000000000000000000000000000000000000000000018010000000008DD7D
:2B2FB400000000000000000000A00000000000000000000000000000000000000000000000000080000000000080CF83
:2B2FDF00000000000000000000C00000000000000000000000000000000000000000000000000090000000000080BE39
:2B300A00000000000000000000A00000000000000000000000000000000000000000000000000060040000000000ADEA
:2B303500020000000000000000A00000000000000000000000000000000000000000000000000080000000000008C581
:2B306000000000000000000000800200000000000000000000000000000000000000000000000000000000000088C576
:2B308B00000000000000000000800200000000000000000000000000000000000000000000000060000000000010BA6E
:2B30B600000000000000000000000000000000000000000000000000000000000000000000000020000000000008CDFA
:2B30E100000000000000000000000000000000000000000000000000000000000000000000000098200000000008D62E
:2B310C00020000000000000000000000000000000000000000000000000000000000000000000040000000000008A9A5
:2B313700000000000000000000000000000000000000000000000000000000000000000000000090400000000000B6E7
:2B316200000000000000000000000000000000000000000000000000000000000000000000000000000000000080E7DB
:2B318D00000000000000000000000000000000000000000000000000000000000000000000000020080000000080CDA2
:2B31B800020000000000000000000000000000000000000000000000000000000000000000000080000000000088EDF5
:2B31E300000000000000000000000000000000000000000000000000000000000000000000000040000000000080A35E
:2B320E00000000000000000000000000000000000000000000000000000000000000000000000000000000000080E72E
:2B323900000000000000000000000000000000000000000000000000000000000000000000000088200000000080CF73
:2B326400000000000000000000000000000000000000000000000000000000000000000000000068000000000000894E
:2B328F000200000000000000000000000000000000000000000000000000000000000000000000F0400000000088DA80
:2B32BA00000000000000000000000000000000000000000000000000000000000000000000000088000000000080EFF2
:2B32E5000000000000000000000000000000000000000000000000000000000000000000000000E800000000008089CD
:2B3310000000000000000000000000000000000000000000000000000000000000000000000000600000000000808131
:2B333B00020000000000000000000000000000000000000000000000000000000000000000000000000000000008ED70
:2B336600000000000000000000000000000000000000000000000000000000000000000000000000000000000008EF45
:2B339100000000000000000000000000000000000000000000000000000000000000000000000008080000000010F6FB
:2B33BC000000000000000000000000000000000000000000000000000000000000000000000000E80000000000088175
:2B33E70000000000000000000000000000000000000000000000000000000000000000000000007000000000000898AB
:2B341200020000000000000000000000000000000000000000000000000000000000000000000008040000000088E118
:2B343D000000000000000000000000000000000000000000000000000000000000000000000000E80000000000808973
:2B34680000000000000000000000000000000000000000000000000000000000000000000000006000000000008081D8
:2B3493001200000000000000000000000000000000000000000000000000000000000000000000100000000000A0C686
:2B34BE001000000000000000008000000000000000000000000000000000000000000000000000200000000000A8F794
:2B34E900000000000000000000000000800000000000000000000000000000000000000000000000000000000000EF49
:2B351400800008800008800008200008200008800008000000000020000220000220000220000208000220000200CD9B
:2B353F00800008800008800008800008800008800008000000000020000220000220000220000220000220000280E7FE
:2B356A0000000000000000000000800000000000000000000000000000000000000000000000000800A200000000CF3D
:2B359500000000000000000000000000000000000000000000000000000000000000000000000000000000000080E7A4
:2B35C000000000000000000000000000000000000000000000000000000000000000000000000000000000000080E779
:2B35EB00000000000000000000000000000000000000000000000000000000000000000000000000000200000080C56E
:2B361600000000000000000000008000000000000000000000000000000000000000000000000008002000000000E5FC
:2B364100000000000000000000000000000000000000000000000000000000000000000000000080000000000000E7F7
:2B366C00000000000000000000000000800000000000000000000000000000000000000000000020000000000000CDC6
:2B369700000000000000000000000000000000000000000000000000000000000000000000000000200000000080C7A1
:2B36C200000000000000000000400000000000000000000000000000000000000000000000000010000000000080B657
:2B36ED00000000000000000000000000000000000000000000000000000000000000000000000000000000000080E74B
:2B371800000000000000000000000000000000000000000000000000000000000000000000000000000000000080E71F
:2B374300000000000000000000000000000000000000000000000000000000000000000000000000000000000080E7F4
:2B376E00000000000000000000000000000000000000000000000000000000000000000000000000000000000080E7C9
:2B379900100000000000000000000000000000000000000000000000000000000000000000000010000000000080E67F
:2B37C400000000000000000000000000000000000000000000000000000000000000000000000000000000000080E773
:2B37EF00000000000000000000000000000000000000000000000000000000000000000000000000000000000080E748
:2B381A00000000000000000000000000000000000000000000000000000000000000000000000000000000000028CD8E
:2B384500000000000000000000004000000000000000000000000000000000000000000000000000100000000080F395
:2B387000000000000000000000000000000000000000000000000000000000000000000000000000000000000080E7C6
:2B389B0000000000000000000000000000000000000000000000000000000000000000000000000000040200008083F9
:2B38C600000000000000000000000000000000000000000000000000000000000000000000000000008200000080CD08
:2B38F100000000000000000000000000000000000000000000000000000000000000000000000000000000000080E745
:2B391C00000000000000000000000000000000000000000000000000000000000000000000000000000000000080E719
:2B39470040100441100441100441100441100441100401000000001004411004411004411004411084E310044100C770
:2B397200601886611886611886611886611886611886010000000018866118866118866118866118867519866180B2EF
:02399D00FFFF2A
:00000001FF
